:1020000000800020A9510000915100009151000072
:1020100000000000000000000000000000000000C0
:1020200000000000000000000000000091510000CE
:10203000000000000000000091510000FD51000070
:102040009151000091510000915100009151000008
:1020500091510000915100009151000095510000F4
:1020600091510000915100009151000091510000E8
:102070009151000091510000015100009151000068
:1020800091510000915100009151000091510000C8
:10209000000000009151000091510000915100009A
:1020A00091510000915100009151000091510000A8
:1020B0000000000010B5064C2378002B07D1054B1B
:1020C000002B02D0044800E000BF0123237010BDA4
:1020D0002002002000000000286F0200044B10B511
:1020E000002B03D00349044800E000BF10BDC046E8
:1020F0000000000024020020286F020010B50849EB
:10210000041C05F087FC002807D10021201C05F0E5
:102110006DFC002802D0002400E0014C201C10BD02
:102120000000C842012310B55B4206220721024885
:1021300001F01CF810BDC0461403002030B5184C47
:1021400085B003210500200000F086FF154B1649DD
:10215000236101235B426361200002F091FA134B7B
:1021600020001B68D90FC9184910C9B202F083FAC0
:102170000F4B002023610F4B9D420ED80A222900ED
:1021800001A804F00BF801A9200003F047FB01A807
:1021900003F0B0FF0120084B1D6005B030BDC04604
:1021A000140300200800140084BA0100000000207D
:1021B000080064009F8601000400002073B51F4CD6
:1021C00005000321200000F047FF1D4B681C236120
:1021D0000023EB7005F080FD05001A4E1A4930000F
:1021E00003F000FB0A222900300003F072FB642D8B
:1021F0001FD846224223019200930A2D1ADC134B6A
:102200006232E621200002F0D5FE0021200061614B
:1022100002F036FA0221200002F02DFA0C4B2900C0
:1022200023610A22200003F050FB2521200003F047
:10223000DDFA73BD074BA822E3E7C0461403002074
:1022400008005000F00800205A8100006896010044
:10225000F500B400782E010037B5124C451C03215F
:10226000200000F0F9FE104B10492361280005F012
:102270005DFE00280AD1472301930A3B00930C4BD3
:10228000A8220A21200002F095FE37BD0949280046
:1022900005F04CFE0028F8D1472301930A3B009338
:1022A000054BEDE7140300200800500052810000A8
:1022B000A0520100568100008474010037B50F4C14
:1022C00005000321200000F0C7FE0D4B20222361F2
:1022D00000234721AB706B78019193432232009227
:1022E000592B06D1074B66321331200002F062FEF3
:1022F00037BD054BA8225A21F7E7C046140300203A
:1023000008005000F01C020044F80100F0B5050080
:10231000634B644C1B6885B003212000039300F0DD
:102320009BFE614B61492361280005F061FA604919
:102330000600039805F05CFA0A21301805F03EFB10
:102340000F1E0ED05B4B9D4209DD00225A4B11003F
:10235000019378230093C833200002F0F6FB05B008
:10236000F0BDFA212800890005F042FA5349060021
:10237000039805F03DFA0A21301805F01FFB0E1EE8
:1023800014D04C4B9D4206DD4B4B019378230093B8
:1023900088333A002DE04A4B9D42E0DD464B0193E5
:1023A0007823009388333A003900D5E76421280068
:1023B00005F01EFA642107004942039805F018FA57
:1023C0000A21381805F0FAFA0F1E14D0394A3A4B90
:1023D000954206DD01937823009349330022802142
:1023E000BAE77822364901930092C12332008D4228
:1023F00054DD4021B0E70A21280005F0F9F90A214F
:1024000006004942039805F0F3F90A21301805F057
:10241000D5FA0E1E1DD0274B274E9D420DDD782389
:10242000019600933A000933C021200002F08DFB91
:102430007823019600930933D0E7214B9D42F7DCC6
:10244000782301960093632D01DD0933A1E78A23E8
:10245000A9E7039B0A21E81A05F0B0FA002900D188
:102460007DE7144A144B954207DD019380217823C0
:10247000320000934900373B6EE778221049019300
:1024800000928D4203DD41233200C02164E74123E5
:10249000632DA3DC4A233200092DAADC31005BE75F
:1024A000040000201403002008001400102700007E
:1024B000F0D8FFFF0F2700005505000018FCFFFFB4
:1024C000E703000070B5040002F0A6FE0500601CE2
:1024D00005F002FC124E0400336883421FD0FFF760
:1024E00015FF2000FFF72AFE002818D00D4C0E49DA
:1024F000200003F06CF90A223168200003F0E5F9AE
:102500000A49200003F063F902F086FE0A22411B0B
:10251000200003F0E8F90649200003F075F970BDCA
:1025200004000020F0080020748100008681000073
:102530009281000070B5002402F06EFE06002000BB
:10254000FFF7E4FE2000FFF7F9FD002818D0234D27
:102550002349280003F03BF90A222100280003F058
:10256000B4F92049280003F03DF902F055FE0A2293
:10257000811B280003F0B7F91B49280003F044F938
:102580001A4B01349C42D7D1194C02F045FE06008B
:102590002000FFF7BBFE2000FFF7D0FD002818D079
:1025A0000E4D0F49280003F012F90A2221002800DD
:1025B00003F08BF90B49280003F014F902F02CFE0C
:1025C0000A22811B280003F08EF90749280003F036
:1025D0001BF9013C002CD8D1ADE7C046F008002023
:1025E000748100008681000092810000A0860100B5
:1025F0009F86010037B5013005F06EFB0A4C0500DF
:102600000321200000F028FD084AA023019278222F
:10261000009200225B001100200002F096FA2800D0
:10262000FFF78CFD37BDC0461403002055050000A0
:1026300013B52824064B22B2019300925523122190
:102640000448013401F0AFFD7C2CF3D113BDC0462A
:10265000550500001403002037B5A02500246D00A7
:1026600022B20848A22C0ADC074B019300922B00EF
:102670000021013401F097FDF12CF1D137BD034B5E
:10268000F3E7C0461403002055050000FFFF0000DB
:1026900073B547264225FFF7DFFF134C01960095DF
:1026A0002000124BA8225A2102F084FC41230193FE
:1026B000013B009320000E4BA822A02102F07AFCDF
:1026C0003D230196009320000A4BA8220A2102F024
:1026D00071FC462300950193A822074BE6212000B8
:1026E00002F068FC73BDC04614030020F01C020019
:1026F0009C41020084740100782E0100F0B5013085
:1027000085B005F0E9FA454E3368834200D183E095
:1027100005F07AFAFFF7F2FC05F056FAB424404DC2
:1027200030600321280000F097FC3E4B2B613E4FA8
:1027300022B2013401970092E023AE212800A4B216
:1027400001F031FD0397CB2CF1D1002402212800A8
:102750006C6101F090FF354B21002B61280001F0E6
:102760008FFF0A223168280003F0AFF825212800E6
:1027700003F03CF82E4F2F4938002C6103F032F85B
:1027800038000A22316803F0A4F833682A270A2B9C
:1027900015DC30686421784305F02AF8A04224DB78
:1027A000F82321001B020193E223A83109B2009310
:1027B000D0220B00280001F0F6FC0134E9E7306874
:1027C0006421784305F014F8A0420EDBFC232100BD
:1027D000DB000193E223A83109B20093D0220B0061
:1027E000280001F0E0FC0134E9E72A233068642185
:1027F000584304F0FDFFE22604002A2C0CDC2100E3
:10280000039BA83109B2019300960B00D022280047
:1028100001F0C9FC0134F0E705B0F0BD1003002061
:102820001403002008001400FFFF0000AE00B800F1
:10283000F0080020A3810000F0B59E25144C85B05F
:10284000461C0321200000F007FC124B2361039378
:1028500000272AB201350197009285230321200029
:10286000ADB201F0A0FCC12DF2D101235B42636146
:102870003900200001F004FF2000042101F0FBFEDC
:10288000039B31002361200002F0D2FF05B0F0BDB0
:10289000140300200800A00070B50500274C032198
:1028A000200000F0D9FB681C05F016FA051E37DB86
:1028B000C82105F083F80E1E32D12149200001F015
:1028C00024FC3100200001F0DBFE0321200000F099
:1028D000C3FB1C4B1C49236101235B426361200045
:1028E00002F0A6FF194B1A492361200002F0A0FF55
:1028F0001849200001F0C4FE174B20001B68D90FB7
:10290000C9184910C9B201F0B6FEFA239B009D42D6
:102910000DD1124B23610A222900200002F0D9FFB9
:10292000FA20C00002F0AEFCFFF7B2FE70BD002D31
:1029300001D10B4BEEE70B4BECE7C0461403002034
:10294000E5F2000082001E003881000032003C00E9
:102950003B81000084BA0100000000201E00C80076
:102960008200C8005000C80070B5124C0500124922
:10297000200001F0CAFB2000002101F081FE2000B0
:10298000032100F069FB01235B4263612000062103
:1029900001F071FE094B0A492361200002F048FF53
:1029A000691C200002F044FF0221200001F063FEB8
:1029B00070BDC04614030020E5F2000032003C0068
:1029C0004C81000037B5013005F086F900220B4D2F
:1029D0000B4B04B21100280001930094230001F076
:1029E000A1FB084802F04EFC002128000191009450
:1029F00023000A0001F096FB37BDC04614030020F7
:102A0000FFFF00008813000010B5040001002648F5
:102A100002F00EFF202223789343432B03D12000A2
:102A2000FFF750FD10BD412B03D12000FFF746FCFE
:102A3000F8E7502B03D12000FFF70EFCF2E7542BF0
:102A400003D12000FFF7BAFBECE7422B03D12000B3
:102A5000FFF754FEE6E7452B03D12000FFF7ECFE1D
:102A6000E0E7522B02D1FFF713FEDBE7442B03D143
:102A70002000FFF7A7FFD5E7462B03D12000FFF783
:102A80000BFFCFE7472B02D12000FFF753FD512B5F
:102A900003D12000FFF7AEFDC4E75A2BC2D12000BE
:102AA000FFF762FFBEE7C046F0080020F0B5784CA3
:102AB00085B07849200000F04FFAE121200049025A
:102AC00000F03CFA0121200000F022FA724D0028AB
:102AD0000AD07249280002F085FE20000A2100F089
:102AE000BAF9200000F029FA01222000002100F0AC
:102AF0009BFAE1212800490203F032FDE121002682
:102B00004902674803F0D0F802AB5E711E71039A68
:102B10006449654800F094FB644C3100200000F0EB
:102B2000C5FA0121300002F02FFD6149280002F0B2
:102B300059FE1C215F4800F0FAFB5F49B04204D106
:102B40005E49280002F074FE5D49280002F070FE24
:102B500020005C4901F0D9FA2000032100F07CFA42
:102B60008223002501932833322200932000564B04
:102B70004B2102F01FFA29002000656101F080FD61
:102B80002000012101F077FD504B514923612000C5
:102B900002F028FE4F49200002F04AFEFA20C00051
:102BA00002F070FBFFF758FDFA2047274226C000CD
:102BB00002F068FB009620000197474BA8225A219B
:102BC00002F0F8F941234022019300922000434B88
:102BD0006832A02102F0EEF93D212000009101971A
:102BE0003F4BA822333902F0E5F9462000960190C8
:102BF0003C4BA822E621200002F0DCF9FA20C000BC
:102C000002F040FB009620000197374BA8225A2182
:102C100002F0D0F9412340220193009220002F4B73
:102C20006832A02102F0C6F93D21200000910197F1
:102C30002E4BA822333902F0BDF94620A82201907C
:102C400000962B4B2000E62102F0B4F920006561CC
:102C5000022101F010FD274B274E23613100200097
:102C600002F0E6FD20006561022101F004FD234B26
:102C700031002361200002F0DBFDFFF7D9FC2800C2
:102C8000FFF75CFA642002F0FDFA05B0F0BDC04623
:102C90008C030020B80B0000F00800202262020024
:102CA00094060020001BB700D4030020140300206A
:102CB0003362020014040020936202004B6202009F
:102CC0008B620200FFFF0000C08100000A000A00C2
:102CD00097620200AB62020044F801009C410200CE
:102CE000A052010068960100F01C020084740100EB
:102CF000782E0100AE00B800B5620200F500B40005
:102D0000F8B50321414800F0A7F902F085FA002840
:102D100037D03F4C200000F0A3F83E4B18603E4BEC
:102D20001A68904264D31A68821AF92A2DD9FA21B6
:102D300018604900200000F097F80121200000F001
:102D4000E7F8002815D00121200000F099F8334D54
:102D50003349280002F046FD02F05EFA0A22010023
:102D6000280002F0C0FD200000F0C2F8200000F0B2
:102D7000E4F82000052100F06EF8200000F0C2F811
:102D800003E002F049FA0128C3D80121254B0020B5
:102D90001A785140197002F043FC234C200003F0D4
:102DA000A7F8002823DD200003F07EF91F4DC1B2F3
:102DB0001A48297003F045FA2A781D4C242A01D1BB
:102DC00000232370002321781A481B4E4F1C4254C5
:102DD0007254C355F355242A0CD123700022237852
:102DE0002A700133DBB22370092B00D92270F8BDA1
:102DF000186098E7232AF1D132784354242AEDD180
:102E000083720130FFF700FEE8E7C046140300209C
:102E10008C0300200403002008030020F008002099
:102E2000206202000E030020940600200D03002003
:102E30000C030020A00200203C02002070B50C0012
:102E400002F0EAF90500241802F0E6F9854201D8FB
:102E50008442F9D270BD10B50122FFF7EFFF10BD1B
:102E600010B502F0D9F910BD002310B54361836895
:102E70000161C360040002F0CFF9A06010BD000042
:102E8000F8B506000F0002F0C7F90500144C15490B
:102E9000200002F0A7FC0A223900200002F02FFDDA
:102EA0001149200002F09EFC29000A22200002F0B5
:102EB0001AFD0E4F2000390002F094FCB3680A227C
:102EC000E91A200002F00FFD3900200002F08AFC10
:102ED000B168F3680A22C91A200002F004FDF8BDA7
:102EE000F0080020CE620200D5620200D762020024
:102EF00010B50249024802F09BFC10BDC7620200F7
:102F0000F008002010B5040002F086F9A06010BDA2
:102F100010B5040000290BD102F07EF96368C01AD5
:102F2000632805D864210122091A2000FFF786FFD3
:102F300002F072F96060012010BD7047FA2010B5F0
:102F40000C00800002F09EF92100024803F008FB0B
:102F500010BDC046F0080020002310B54364436054
:102F6000994201D0FFF777FF10BD000070B5050052
:102F70000E0002F051F90A4C68600A49200002F084
:102F800031FC0A223100200002F0B9FC0649200081
:102F900002F04EFC28003221FFF75DFF70BDC046F5
:102FA000F0080020B9620200C06202000022034B58
:102FB0009A60DA601A615A617047C0468C0300203B
:102FC000F7B50191037E05006320002B08D0154E54
:102FD000FF27300003F032FAC0B2002801D165208B
:102FE000FEBD300003F02AFAC0B20028F7D030004E
:102FF00003F060FA04003C40682C08D009DC582C2F
:103000000DD0632CEDD101992800FFF7AFFF6320AD
:10301000E6E7712CFBD0762CE3D1C0B2E0E70023C9
:103020002B76F4E7F008002070B5040015000029A5
:103030000CD00123037600212000FFF7C1FF632895
:1030400004D001212000FFF706FFF4E7257670BDCC
:10305000002070477047000007B56B46DA1D032358
:1030600019408176022908D099420FD045330129B1
:1030700004D128231370064B02E088231370054BFC
:10308000C3603621012301F0C1FE07BDE823F1E74B
:103090004001F000F00040014B1E9941002310B5A3
:1030A00020311A0001F0B2FE10BD0000F8B5050095
:1030B000002900D115490222280001F073FB2B00E2
:1030C00069331B787F2B08D9002328001A000121BF
:1030D00001F09CFE962002F0D5F80D4C21780029D5
:1030E00010D06678A71C7F24344023003A002800C3
:1030F00076B201F0B9FE3C19002EEFDA962002F00C
:10310000C1F8EBE7034BEB60F8BDC04600366E013B
:10311000D9620200F0004001F7B504000F0016006C
:10312000013B08AACB1815889BB22A21019301F014
:10313000C9FE3900200001F0E5FE013D01992000A3
:1031400001F0E0FE751920002B2101F0BBFEADB2AD
:103150003100200001F0D6FE2900200001F0D2FE4F
:103160002C21200001F0AEFEF7BD000013B50400D5
:10317000A020019300920B004200F021200001F0FA
:10318000FBFA024B20000833236016BD486302009F
:10319000037D002B04D1437583758361013303756F
:1031A00070477FB5C36802AD04000E0002916A60EB
:1031B0008B4203D1028AAB889A4218D020000622A3
:1031C00029000C3004F0DCFD206802F0A4FC6B79CF
:1031D000227AE17900932068002302F03DFD206807
:1031E0002979320002F068FC206802F08AFC7FBD79
:1031F00070B518260400FFF7CBFF330008212079B3
:103200000D4D4343EB18595602F036FA33000821AE
:10321000A0794343EB18595602F02EFA0821607941
:103220004643AD19695602F027FA044B200006CB3D
:10323000FFF7B7FF70BDC046786902000C0400209C
:1032400007B5437D00910192002B07D09A070AD55C
:10325000EFF310835A425341837572B60099019A75
:10326000FFF79FFF07BDDB07F8D58369014A9BB2D3
:103270009360F3E700180040437D002B05D09A07C8
:1032800004D5837D002B00D062B67047DB07FCD5E8
:103290008369024A9BB2D360F7E7C046001800403A
:1032A00010B5006802F040FC10BD0000104A114B40
:1032B00011491360002353711371104A10481160B3
:1032C0001049D360918009219171063953741374A8
:1032D0001375D37111720C4A10600C48D360908042
:1032E0001B205374137413759071D371117270474E
:1032F0000C04002000093D00D4080020D403002065
:10330000E00800200A080000F00300201D1A000059
:1033100070B5012204000D0000F086FD02000120BE
:10332000002A03D12900200000F07EFD70BD0300BB
:1033300070B541331B7804000D00002B02D03830EB
:1033400000F03CFB2A000121200000F0FBF80028DF
:1033500001D1002070BD2500103521002800FFF7A5
:10336000D7FF0028F5D020002900383000F08EFA71
:10337000431E9841C0B2EDE70221084B00221961BB
:10338000190030310A7006495A719A719A721A738B
:10339000DA63996341331A707047C0461404002001
:1033A000B063020010B501000148FFF779FF10BDBE
:1033B000F003002010B5FF210148FFF771FF10BD99
:1033C000F003002010B50121007902F029F9054B26
:1033D0001A78002A04D0002203481A70FFF74CFF25
:1033E00010BDC04678040020F003002010B5084B43
:1033F00004001A78002A06D101321A70054B0648DB
:1034000006CBFFF71DFF2079002102F009F910BD5E
:10341000780400207C040020F003002010B583799C
:103420000400002B0DD023895A1C2281054A9342A7
:1034300002D8FFF7BFFFF6E72000FFF7C3FF002326
:10344000A37110BD0102000000B5062904D916239E
:1034500000214371080000BD104B052919D8080050
:10346000002204F031F903090E1012140C491960FE
:103470001A715A710121EDE70A481A7118605A71E0
:10348000E8E70949F3E70949F1E70949EFE709499D
:10349000EDE7094A1A600022EAE7C0467C040020F2
:1034A000001BB70000093D0080841E0040420F0051
:1034B00020A1070090D0030048E8010070B50C007F
:1034C00001F0AAFE0500FFF775FFFF2806D001F006
:1034D000A3FE401BA042F6D3002070BD0120FCE7F4
:1034E000F8B505000E001700FFF798FF2800FFF75A
:1034F0007DFF962128004900FFF7E0FF4020304380
:10350000FFF750FF18243800E040083CC0B2FFF736
:1035100049FF23000833F6D19520002E03D06A30EE
:10352000082E00D17838FFF73DFF0024FFF742FF57
:1035300043B2E872002B04DAFF2C02D00134E4B26B
:10354000F4E7F8BDF7B50025027105738572857142
:1035500045710400019101F05FFE0121070020790F
:1035600002F012F80121207902F05AF8424E3000A0
:10357000FFF73EFE414B42491D715D7119605A686B
:103580003000FFF75DFE0A35013DFF20EDB2FFF789
:1035900009FF002DF8D13000FFF76EFEFA2620005B
:1035A000FFF724FFF600002220001100FFF798FF2C
:1035B0000500E07201280BD001F02EFEC01BB042C6
:1035C000F1D9012320006371FFF7FCFE0020FEBD4E
:1035D000D522082152002000FFF782FF0423184261
:1035E0001BD02573257BFA26023D6B425D41F60018
:1035F000AD07002237212000FFF772FF2A002921A2
:103600002000FFF76DFF021EE07213D001F004FEF0
:10361000C01BB042EDD90823D4E71D00FFF7CAFE56
:10362000013DEDB2E072002DF8D10223AA28C9D1E4
:103630002373D7E7237B022B15D13A212000FFF714
:103640004FFF002801D00623BCE7FFF7B3FEC023DD
:103650001840984201D1BD3B2373FFF7ABFEFFF743
:10366000A9FEFFF7A7FE2000FFF7ACFE019920009E
:10367000FFF7EAFEABE7C046F00300207C04002021
:1036800090D0030070B5040001F0C6FD9625060039
:103690006D00FFF78FFE0300E072FF280BD101F0F1
:1036A000BBFD801BA842F4D90F2320006371FFF7F4
:1036B00089FE002070BD0120FE2BFBD00D23F4E716
:1036C000F8B516001D009A18802304009B009A424A
:1036D00016DC8379002B05D003688B4202D1038965
:1036E000B3421AD9237B2160032B00D049020A0080
:1036F00020001121FFF7F4FE071E06D0032363719B
:103700002000FFF75FFE002028E02000FFF7BAFF4F
:103710000028F5D001232781A3712389B34208D360
:10372000069E7719B7420AD0FFF744FE3070013683
:10373000F8E7FFF73FFE238901332381EDE7238973
:10374000ED18A37AADB22581002B03D0044B0120E4
:103750009D4203D92000FFF761FE0120F8BDC0465D
:10376000FF010000802307B59B0000920022FFF7B5
:10377000A7FF0EBD70B5050008001400FFF712FE8C
:1037800080239B00E61820780134FFF70BFEB4423B
:10379000F9D1FF20FFF706FEFF20FFF703FEFFF73A
:1037A00009FE1F23E87203400120052B05D01123D9
:1037B00028006B71FFF706FE002070BD70B5122364
:1037C00004001600002922D0037B032B00D04902FD
:1037D0000A0020001821FFF783FE0423051E16D1DE
:1037E0003200FE212000FFF7C5FF002810D09621EF
:1037F00020008900FFF762FE1523002807D02A0069
:103800000D212000FFF76CFE002806D01423637101
:103810002000FFF7D7FD002007E0FFF7CBFD0028D1
:10382000F4D12000FFF7CEFD012070BD034B044A08
:103830001A6000225A711A717047C0467C04002039
:1038400000093D00020010B50C3204000121406A5D
:1038500000F088FA00280AD0236A0120002B06D144
:10386000E368227A236280235B421343237210BDF4
:1038700010B50400406900F0B7F9002803D0207E9D
:10388000014B4001C01810BD8C04002070B5427A75
:1038900004000D00002A01D0002070BD4B1CDB7F0E
:1038A000102B0ED10E3B43724B8C02625B01C36145
:1038B0000023012065622072E36023616361237647
:1038C000EBE7202BE8D102001D3B4372496A1C3212
:1038D0000162280000F0DCF90028E9D1DCE770B5CE
:1038E000437A04000E00002B01D1002070BDC26994
:1038F0008A42FAD3022B02D126610120F6E7002981
:1039000001D1E160F8E7436A01691A7C751E09324A
:103910004B1ED340D540AB4201D800290DD1236ABC
:10392000E360002DE8D02200E1680C32606A00F00C
:103930007FF9013D0028F4D1D7E7ED1AF1E7000047
:1039400070B5437A0500002B01D1002070BD037AC9
:103950007F2B2DD90121FFF78BFF041EF5D06B7A49
:10396000012B07D8EB691A0A037742771A0C1B0E52
:103970008277C3772B6A9BB2A3761B0AE3762B6A06
:103980001B0C23751B0A63750B4B1B68002B0BD09C
:1039900021002000163118309847637E227E1B02DA
:1039A0001343A3741B0AE3747F222B7A13402B72F8
:1039B00000F0EEF8CAE7C0468404002010B5040009
:1039C000FFF7BEFF002802D000230120637210BD64
:1039D000F0B5437A87B004000F000392012B2CD17D
:1039E000037A9A0729D55B071FD4039B0193019A99
:1039F0002369002A00D194E0606A5D0A0279DB0540
:103A0000013A1540DB0DEDB20293002D1AD1002BC7
:103A100018D1E168002947D1236A002B11D1200079
:103A2000FFF710FF00280DD107E0C1690369994233
:103A3000DBD0FFF754FF0028D7D1012300206360BB
:103A400084E0E3608023029A9B009B1A6A46968872
:103A5000019A9BB29A4200D91E1C626AE368117CEB
:103A6000023B8B405269B6B29B185D1980239B00C4
:103A70009E422ED13A4B1A68AA4202D101225242EA
:103A80001A60384B3A0029001868FFF797FE0028A3
:103A9000D3D080239B00FF18019B9B1B9BB20193FB
:103AA00023699E192661A2E705AA00F0C1F8002843
:103AB0004CD0636A059A0133DB7F103B591E8B4162
:103AC00029495B420B4029495B189A42A7D2E26020
:103AD000B8E7029B002B1BD12369E269934217D3FD
:103AE00000F056F80028A8D01D4B214A1D60012384
:103AF00011780B431370029A1E4B3800D31819002B
:103B00009A198A420BD0057801300D700131F8E71F
:103B10000121280000F068F80028ECD18DE7D31AC5
:103B2000B9E7E169227A994205D2E36180235B42D9
:103B30001343237206E0104B1B68002B02D0039B3B
:103B4000002BF3D1237A1B0702D4039807B0F0BDF2
:103B50002000FFF7F5FE002800D16EE7F5E7C0462C
:103B600008000020900600200000FF0FF8FF000072
:103B7000880400208C0400208404002007B56B46D4
:103B8000D971073301221900FFF722FF0EBD000093
:103B9000F8B5104C01202378002B0AD00E4F0F4EA1
:103BA0000F4B3A0019683068FFF708FE002801D172
:103BB0000020F8BD0B4D2968002907D03A00306875
:103BC000FFF7FCFD0028F3D000232B600023012029
:103BD0002370EEE7880400208C040020900600206B
:103BE000080000208C06002070B50D4E05003368DB
:103BF0000C0083420ED0FFF7CBFF002801D100203C
:103C000070BD084B084A29001868FFF7ABFD002873
:103C1000F5D03560054B01201A7814431C70EFE78E
:103C200008000020900600208C040020880400205A
:103C3000C36870B501330C0015008B4201D200201F
:103C400070BD461CF27FC369C809102A00D1080A5A
:103C5000C0180D4B1B68834209D1F27F0B4B102A11
:103C60000BD1E4B264001B5B2B600120E8E700216C
:103C7000FFF7BAFF0028F0D1E1E77F221440A4004B
:103C80001B591B011B09EFE7080000208C040020D2
:103C9000F7B580270500160000240191BF0001AA96
:103CA00001992800FFF7C4FF002812D03A002B7CAE
:103CB0009A406B1CDB7FA418103B5A425341054AC3
:103CC0005B421340044A9B18019A9A42E7D30120B1
:103CD0003460FEBD000001F0F8FFFF0FF7B50600ED
:103CE0000C000192012901D80020FEBDC3680133F8
:103CF0008B42F9D3471CFA7FC569CB09102A00D142
:103D00000B0AED18134B1B689D4216D1FA7F124B1C
:103D1000102A19D16A46E4B2928864001A5301232A
:103D20000E4918000A781A430A70327E9A42DCD98A
:103D3000B26855190A4A1560D7E700212800FFF735
:103D400053FF0028E2D1CFE77F221440019AA4005C
:103D50001A51E4E7080000208C04002088040020A9
:103D60008C060020F0B5146887B00600029101921D
:103D7000002C2AD000270134F36825000133039377
:103D800000230093F368009A93421AD9039B9D4243
:103D900001D902252C0005AA29003000FFF748FFB1
:103DA00000280ED0059A6B1C002A15D102991A1B07
:103DB0008A4212D11B4A29003000FFF78FFF0028EA
:103DC00010D10027380007B0F0BD029B0468013B0A
:103DD0005A425341DFB2CFE71C00009A1D00013266
:103DE0000092CFE7AC4208D26B1E2A0019003000C7
:103DF0000093FFF773FF009DE1E7019B196800291D
:103E000005D1019B1C60002F08D10137DAE72200A1
:103E10003000FFF763FF0028F3D1D2E701343460AC
:103E2000D0E7C046FFFFFF0FF8B53F4B0500141E5B
:103E3000196020D0042A01D90020F8BD0021080013
:103E4000FFF7D2FE0028F7D0631E384A1B01D318B3
:103E5000BF33FF331B785B06EED11B3424011419EA
:103E6000A38962891B041343632BE5D9E388248962
:103E700024041C43E0D000212000FFF7B5FE0028F9
:103E8000DAD08022294992000B7BC87A1B020343B7
:103E90009342D1D10A7C002ACED0CB89002BCBD043
:103EA0004B7B002BC8D02A76002201202B712A746C
:103EB00002002E7CB240934204D0721C2A74072E5A
:103EC000F6D9B9E7C88A002800D1486AA860CB892A
:103ED0001B19EB610A691202120C6A840F7C784389
:103EE000C0185301124A68629B185B121B186B6161
:103EF0000A7DC87C1202024300D10A6AE41AA4189F
:103F0000F4400C4AEC606B1C944203D80C22DA7724
:103F1000012092E7084A944201D81022F7E7CA6AC2
:103F20006A622022F3E7C046900600208C0400203D
:103F3000FF010000F40F0000F4FF0000F0B51D00C9
:103F400089B00EAB00241C5F0FAB1B8816000693D4
:103F5000A31ADA179B18534002936B1ADA179B18AF
:103F600053400393039A029B0190934205DC230084
:103F70002C001D0033000E001900A64205DC2B00AA
:103F80000D001900230034001E00331B9BB2049364
:103F90004B1BDA179B18534007936B4610229A5E0F
:103FA000D30F9B185B10009301238D4221DA0593F8
:103FB000B44224DC019B039A1B689B691F00029B8F
:103FC000934218DD22002900069B0198B847009B08
:103FD000079A9B1A9BB21AB20092002A06DA059A37
:103FE000AD18049A2DB2D3181BB20093013424B239
:103FF000DEE75B42DBE7069B2A002100E5E709B02C
:10400000F0BD704710B504682469A04710BD37B5EE
:1040100006AC258804680095A46BA04737BD37B56A
:1040200006AC258804680095E46BA04737BD73B5DE
:1040300006AC0025655F07AC2688046801960095EC
:10404000246CA04773BDF0B5160004000D0085B0C8
:1040500003930AAB1F8803685B699847039B226838
:10406000013B9B191BB200930197976A2B0032000A
:1040700029002000B84723682000DB6A984705B074
:10408000F0BDF0B505001C000E00170085B00AABAE
:104090001B88013C03930368A4195B699847039943
:1040A0002A680191009723B23100946A28003A00EF
:1040B000A0472B682800DB6A984705B0F0BDF0B533
:1040C0000E0087B003930CAB029200229B5E0500AA
:1040D00004930DAB1B883400059303685B69984714
:1040E000039A2B68B21894420ADA059A21000092CA
:1040F0001F6A029A049B28000134B84724B2EFE7F4
:10410000DB6A2800984707B0F0BD13B501910E2473
:10411000015F0C22835E02680091146C0022110082
:10412000A04713BDF0B5040015000E0087B004933E
:104130000CAB00229B5E05930DAB1B8803930368B9
:104140005B699847039A236800925F6A2A00049B80
:1041500031002000B847059B03995A1E236800913F
:1041600052195F6A3100049B200012B2B847039ACB
:10417000236800921F6A2A00059B31002000B8477F
:104180000499039A236801390092891909B21F6AB8
:104190002A00059B2000B84723682000DB6A984767
:1041A00007B0F0BD7047F0B585B01E000AAB002720
:1041B000DF5F0BAB1B8814000500029103930268BC
:1041C000B14210D1BC4202DC3B0027001C00039925
:1041D00001340091E31B966B1BB23A000299280050
:1041E000B04705B0F0BDBC4211D1029BB34202DC26
:1041F0003300029E0293029B0399013300919B1BA3
:10420000D76B1BB2220031002800B847E9E7536999
:104210009847039A2B68019200979F6A2800330001
:1042200022000299B8472B682800DB6A9847D8E734
:104230000323194010B50822835E81760A24025FA9
:10424000012904D0032902D08381C28110BD82815B
:10425000C381FBE74281C2810122524242610222B4
:10426000002310B5FF32074C0283013A0834FF3AAD
:10427000436004600181818103618376C2760377A4
:10428000036210BDC0680200F0B595B01D001AAB06
:104290001B88040005931BAB1E881CAB1B78089180
:1042A00003931DAB1B7804920293036A002B00D08A
:1042B000C4E00C22835E8B4200DC7DE00E22835E34
:1042C000049A934278DD0623039A53435B18002B2C
:1042D00072DD029B049ADB009B18002B6CDD037FD0
:1042E000002B03D1AF2D01D90135EDB22368200099
:1042F0005B69984705235D430B9300230793984B15
:104300005B190F93079A0F9B9B5C0A936B469B8BE1
:1043100009936B469B890D936B460D9A1F8C099BE5
:104320005343FB181BB20E9308230C9300230693F0
:1043300001220A9B2068134252D06B461A8B198ABD
:10434000039B012B3AD1029B012B37D1099B5218B9
:104350008569D919059B12B209B22000A847069BAE
:1043600001335BB206930A9B5B080A930C9B013BEB
:10437000DBB20C93002BDBD1079B01335BB20793BD
:104380000B9B013BDBB20B93002BBBD1059BB342D4
:104390000ED0039B2268012B3FD1029B012B3CD105
:1043A00005370096156A39B20733049A2000A847EA
:1043B00023682000DB6A984715B0F0BD6B460C25DA
:1043C0005B5F029D6A438A18059912B201916946A2
:1043D0000825495F0091C5690E992000A847BEE7EE
:1043E000059BB342BBD06B46198B1A8A039B012BEA
:1043F0000AD1029B012B07D1099B5218D91912B27D
:1044000009B285693300A8E76B460C255B5F029D06
:1044100001966943521812B2D9E76B460C215B5ED4
:1044200005210D980196414302987918C00000902B
:10443000D56909B2049A2000A847B9E71A7AAD1ADB
:10444000EDB25A68ED001B68551913932B88099338
:10445000AB780D93EB7811930523EB560E9306235F
:10446000EB560F93039B012B02D8029B012B56D9CD
:104470006B4638229B5E0B936B463C229B5E0C93F3
:104480000027236820005B69984707970697119BD0
:10449000069A9A4200D38BE76B461B8A00260A9342
:1044A0000C9B9B18029A53430A9AD3181BB2109381
:1044B0003B000D9A96424BD25A1CD2B2129207225E
:1044C000134207D1099B0999139A0133525C9BB29D
:1044D000079209936B461B7F5BB2002B17DA6B4682
:1044E000198C039B2068012B1DD1029B012B1AD133
:1044F0000A9B0F9A9A18069BD2180E9B12B2C918E3
:10450000836989191D0009B2059B2000A847079BF4
:1045100001365B00DBB20793F6B2129BC9E70023BA
:104520000C930B93ACE76B460C229B5E0B9A039D9E
:1045300092196A438918059A09B201926A460825B8
:10454000525F0092C26920001500109AA847DEE76A
:10455000069D0D9B0135FF18EBB2FFB2069396E75F
:10456000C0630200F0B5026A85B004000B00002AA7
:1045700034D10A2908D1437E0282DB00628A9B186B
:104580006382012005B0F0BD0D29FAD0E17E007EE6
:10459000657E00290ED01026A15F062646438919A4
:1045A0000C27E65FB14205DD1226A15F2282EA00F8
:1045B000521862820290E08A1221625E0190A08A03
:1045C0001026A15F009003952000FFF75DFE0622F4
:1045D000237E5343228A9B182382D2E70A2905D1DE
:1045E00000230382927A437E5343C7E70D29C8D044
:1045F000117A8B42C5D3507A9842C2D3591AC9B2A4
:104600005068C9004518AF78002F28D0E9780029F4
:1046100025D0E17E207E667E002913D005216956D3
:10462000C91941438C461021675EBC440C21675E6A
:10463000BC4507DD1227E15F00272782927A72438B
:10464000521862820290E08A1221625E0190A08A72
:104650001027E15F009003962000FFF715FE2B79ED
:10466000227EB6E7002900D101310176002A00D16F
:1046700001324276704710B50A00FFF7F3FF10BD14
:10468000036A002906D0002B02D1438A06334382F5
:1046900001627047002BFBD0438A063BF7E700001E
:1046A00010B50C4CA14200D92100013A0160511E05
:1046B0008A414271012B0AD0002B04D0032B04D075
:1046C0000023037110BD0123FBE70223F9E7032355
:1046D000F7E7C046001BB700F7B500260025002706
:1046E0000400019308AB9E5709AB5D5712B20AABA9
:1046F00009B2DF57FFF7AEFD1B4B002208332360E2
:10470000230068335F700127DD701A709E700833D4
:10471000E2661A80019B3900636318235D431348E6
:10472000626743195B6899402B5661661049DB014B
:104730005D18AC46E5620F4D5B19236396420DDBB5
:1047400018235E4383195B689F4033562766DB015D
:104750005A185B196262A3622000FEBD6146A36223
:1047600061622266F8E7C0461869020078690200B3
:10477000184400411444004130B5040085B008A835
:1047800009AD00782D7840B26DB20190009302958A
:10479000034B2000FFF7A0FF200005B030BDC0464E
:1047A000D4030020F0B5040085B00F0016000029E6
:1047B00000D1634F250000206A352856002807DB0A
:1047C000012100F0E1FE00200121285600F028FF21
:1047D000250000206B352856012100F0D5FE002071
:1047E0000121285600F01CFF230068331D78002D9E
:1047F00037D133000122390002A8FFF751FF200012
:10480000062202A9383003F0BBFA606B4D4B2664D8
:10481000984202D04C4B984201D1FEF7E9FC0020AF
:104820006934205600281ADB012100F0ADFE00207B
:104830000121205600F0F4FE642000F023FD00204A
:104840000021205600F0ECFE642000F01BFD00204B
:104850000121205600F0E4FEC82000F013FD05B051
:10486000F0BD012D1DD12600002054363056290000
:1048700000F08AFE00200021305600F0D1FE022018
:104880002900305600F080FE02200021305600F052
:10489000C7FE552020560028C1DB002100F074FE21
:1048A000BDE75C221823A256284E53439A5DF318A5
:1048B0005F68230000925F331978FAB20F23002952
:1048C00000D1083B00259B18DBB2019300F016FCD9
:1048D000854219D218236B430099F2568A4210D1AF
:1048E000FF22F3185B683A4093420AD3019A93423D
:1048F00007D80121280000F047FE0021280000F021
:104900008FFE0135EDB2E1E7250000205D35285628
:10491000012100F039FE00200121285600F080FE20
:10492000012028560135002800DA78E7012100F03F
:104930002BFE00200121285600F072FE6FE7C046D2
:104940000024F400D4030020F00300207869020062
:10495000030010B568331B78002B04D1816BC26B48
:10496000406BFEF76DFC10BD10B50400FFF7F0FFC3
:1049700023006A331B787F2B02D8A36A226E1A6049
:1049800010BD030010B568331B78002B02D1406BBB
:10499000FEF772FC10BD030010B56A331B787F2B45
:1049A00002D8436A026E1A60FFF7EBFF10BD836CFA
:1049B000426D1A60436C426D1A607047F7B504008F
:1049C0000E00151E57D0CBB20193030068331B783D
:1049D0000F0A002B0AD1013D4DD33900606BFEF761
:1049E0005FFC0199606BFEF75BFCF4E7012B19D1CA
:1049F0001020013D3FD3310003000FB2A26C002F05
:104A00000EDAA76B3A60226CE76C013B1760626CB0
:104A1000E76C49009BB289B21760002BEDD1E8E743
:104A2000E76BEFE7CBB29F420FD102005F32127803
:104A3000436B002A07D16D001F70013D1BD320007E
:104A4000FFF7B5FFF9E71980F7E7013D13D322001F
:104A50005F321278636B002A0BD11F702000FFF7C2
:104A6000A6FF6A46636B12791A702000FFF79FFF5A
:104A7000EBE71E80F9E7F7BDF0B505001E0085B035
:104A80000AAB00241C5F0BAB1B880068A7B2009721
:104A90000393476DB3B2280092B289B2B84722009F
:104AA000039972432800FFF789FF05B0F0BDF0B508
:104AB00087B00CAC0025645F0DAD2D880595002BEB
:104AC00041D0002C3FD0002B05DA9BB201315918A0
:104AD0005B4209B21BB20C26855F8D4233DD002C90
:104AE00005DAA4B20132A218644212B224B20E272F
:104AF000C65FB446964226DDCE18B6B20396013E96
:104B000036B20496002E1EDB1719BFB27E1E36B2D7
:104B1000002E18DB002903DA6B460C215B5E0021B6
:104B2000002A01DA00223CB2049FBD4201DC6B1A6C
:104B30001BB2B44502DC6446A41A24B2059D00945D
:104B40000195FFF799FF07B0F0BDF0B587B01C00E5
:104B50000CAB00255D5F0DAB1B8807000E000292B9
:104B60000593002C53D0002D51D0002C05DAA4B2AF
:104B70000136A619644236B224B20C23FA5EB24260
:104B800045DD002D07DA029BADB20133EB181BB2F5
:104B90006D4202932DB20E217B5E02998B4236DD6F
:104BA000311989B28C46013909B2039100292EDBF3
:104BB0000299481980B2411E09B20491002926DBEE
:104BC000002E02DA6446002624B20299002902DA95
:104BD000002105B2029103998A4201DC941B24B2A0
:104BE000049A934202DC029A9D1A2DB23B68380067
:104BF0005B699847059B3800019300952300029A52
:104C00003100FFF739FF3B683800DB6A984707B08F
:104C1000F0BDF0B585B01C000AAB1B8806000D0086
:104C2000171E039330DB0E22835EBB422CDD002C6B
:104C30002AD005DAA4B20135651964422DB224B236
:104C40000C22B35EAB421FDD291989B24A1E12B293
:104C5000002A19DB002D01DA00250CB2934201DC99
:104C60005C1B24B2336830005B699847039B3000BB
:104C7000019301233A00009329002300FFF7FCFE73
:104C800033683000DB6A984705B0F0BDF0B585B0F9
:104C90001C000AAB1B8806000F00150003930029B7
:104CA0002FDB0C22835E8B422BDD002C29D005DA12
:104CB000A4B20135651964422DB224B20E22B35E4E
:104CC000AB421EDD291989B24A1E12B2002A18DB36
:104CD000002D01DA00250CB2934201DC5C1B24B2EA
:104CE000336830005B699847039B30000193009460
:104CF00001232A003900FFF7BFFE33683000DB6A6A
:104D0000984705B0F0BDF7B508AC2688002A23DB2C
:104D10000E25445F94421FDD002B1DD005DA9BB2A7
:104D2000013159185B4209B21BB20C25445F8C4219
:104D300012DDCF18BFB27D1E2DB2002D0CDB002975
:104D400001DA00213BB2AC4201DC631A1BB2012440
:104D500001960094FFF790FEF7BDF7B508AC2688E2
:104D6000002923DB0C25445F8C421FDD002B1DD066
:104D700005DA9BB201329A185B4212B21BB20E25C1
:104D8000445F944212DDD718BFB27D1E2DB2002DB4
:104D90000CDB002A01DA00223BB2AC4201DCA31A90
:104DA0001BB2009301960123FFF766FEF7BD0300D7
:104DB00010B568331B78002B03D1406BFEF770FAF7
:104DC00010BD012B15D107334CB2826C002C0EDACA
:104DD000846B2260026CC46C013B1460426CC46C36
:104DE0004900DBB2C9B21460002BEDD1E8E7C46B17
:104DF000EFE702005F321278436B002A03D119708B
:104E0000FFF7D5FDDCE789B21980F9E7F7B50400B3
:104E100026006A3601930D001700FFF799FD3378DD
:104E20007F2B02D8A36A226E1A6029003D00236BF3
:104E3000626E20001A60FFF7BAFFE36A626E1A60C2
:104E4000019AEB1B9A4205DD29782000FFF7AFFF9E
:104E50000135F5E733787F2B02D8636A226E1A603A
:104E60002000FFF78EFDF7BDF7B5040026006A3677
:104E700001930D001700FFF76BFD33787F2B02D8ED
:104E8000A36A226E1A6029003D00236B626E200027
:104E90001A60FFF78CFFE36A626E1A60019AEB1BDF
:104EA0009A4205DD29782000FFF781FF0135F5E7FB
:104EB00033787F2B02D8636A226E1A602000FFF7D6
:104EC00060FDF7BD10B50400036B426E1A60FFF77A
:104ED0006EFFE36A626E1A6010BD70B5040003686D
:104EE0000D005B6998472300002D09D070331978B5
:104EF0002000FFF7E7FF23682000DB6A984770BDBA
:104F00007133F4E7030070B568331B7804000D00BB
:104F1000002B08D1090A406BFEF7C2F9E9B2606BB9
:104F2000FEF7BEF970BD012B15D10F3329B2A26C6B
:104F300000290EDAA16B0A60226CE16C013B116062
:104F4000626CE16C6D00DBB21160ADB2002BEDD193
:104F5000E8E7E16BEFE702005F321278436B002A6B
:104F60000AD10A0A1A70FFF722FD636BEDB21D70B9
:104F70002000FFF71CFDD5E71980F9E773B50400A1
:104F80001D00002915DB0C20235E8B4211DD002A59
:104F90000FDB0E20235E93420BDD0123206800937C
:104FA00089B2466D92B22000B04729002000FFF779
:104FB000A9FF73BDF0B5070089B007930EAB0020C1
:104FC0001B5E04930FAB00201B5E02930C203B5E24
:104FD0009C468B4215DD0E203B5E0593934210DD0F
:104FE00004988BB2181880B2441E24B20694002C88
:104FF00007DB029C95B22E19B6B2741E24B2002CA7
:1050000051DA09B0F0BD01B2039100215B421BB23D
:105010000020824204DA32B202920022684200B2D8
:105020008EB206998C4503DC6146891B09B2039157
:1050300095B2059AA24202DC521B12B20292049C63
:105040004443E418079B64001C193B6838005B6903
:10505000984769466B4609893A689B890091526D69
:105060003100944638002A006546A847049B5B003F
:105070000493029B013B1BB2029301330ED0039EAB
:10508000002E08D02500013E05D329883800FFF7FF
:1050900039FF0235F7E7049BE418EAE73B6838007C
:1050A000DB6A9847ADE70029ADDB049B039300233F
:1050B000AEE7F7B504000D0017001E0000291CDB49
:1050C0000C22835E8B4218DD002F16DB0E22835EDE
:1050D000BB4212DD03685B69984701232068009397
:1050E000A9B2BAB2456D2000A84720003100FFF7F1
:1050F00009FF23682000DB6A9847F7BD242070472A
:1051000010B5024800F00FFF10BDC0469406002005
:1051100013B51249124800F045FC1249124800F03C
:1051200041FC1249124800F03DFC1249124800F0BF
:1051300039FC1249124800F035FC124C124920008B
:1051400000F030FC01230193023300930D220B3356
:1051500021000E4800F07CFE13BDC046000800424E
:10516000D0080020000C0042D408002000100042AB
:10517000D808002000140042DC080020001800427B
:10518000E0080020E4080020001C004294060020F3
:10519000FEE70000034B10B51B68002B00D09847BA
:1051A00010BDC046E808002070B50F490F4CA14261
:1051B00004D100F08FF800F0C1FAFEE70C4D002397
:1051C0008D42F6D0CA18E818A24205D3094B824294
:1051D000EFD00949002204E0006804331060F1E7D1
:1051E00004C38B42FCD3E4E700000020200200202F
:1051F0002C6F020020020020240F002010B500F0C8
:1052000066F8002801D100F057F810BD014B186076
:105210007047C046E8080020014B18687047C04638
:10522000EC080020F7B51348012284461249134CBC
:105230008E68636805689B0E1340019288686268F7
:10524000019F920E3A4067463F6893420ED1BD429D
:105250000CD186420AD35B19FA254868AD00861B3B
:1052600007486B437043000DC018FEBD3D0013009E
:105270000600E3E7EC08002010E000E000ED00E0AD
:105280005555000070B5041E10D0FFF7CBFF050088
:1052900000F01CF8FFF7C6FF054B401B9842F7D9FA
:1052A000FA23013C9B00ED18002CF3D170BDC046E1
:1052B000E70300007047000010B5034A136801338C
:1052C000136000F033FB10BDEC0800207047002095
:1052D000704700001E2270B5464847494368934313
:1052E0001C3A1343436008238C6923438B61434C6E
:1052F000434B9C829C8A14439C82DC681442FCD001
:105300000124404A14701578254203D055786DB2B7
:10531000002DF8DB01249460547864B2002CFBDB90
:10532000394C5460547864B2002CFBDB8224E401D5
:105330005480547864B2002CFBDB02249C840E342D
:10534000DD682542FCD0314CDC621024DD6825424A
:10535000FCD09D8C2E4C2C439C841024DD6825426F
:10536000FCD002249D8C80262C439C844024DD6844
:105370003542FCD0DD682542F9D01024DD68254295
:10538000FCD000249460547864B2002CFBDB214CE8
:105390005460547864B2002CFBDB1C6A1E4D2C4018
:1053A00080251C621C6AAC431C62032393601B4B68
:1053B000536053785BB2002BFBDB0023FF240B729E
:1053C000174A4B728B72CB72164B1A60164B174AE8
:1053D0001B6811689A065B01C90E2340520F120226
:1053E0000B431343124A13858023426813434360DF
:1053F00070BDC04600400041000400400C060000A3
:1054000000080040000C004001050100B905FF7DC7
:10541000040A000000070300FFFCFFFF0306010071
:10542000006CDC020C000020246080002060800002
:1054300000400042FA21314B10B51868890002F093
:105440004DF92F4B0138984256D82E492E4A4860C4
:10545000C020136A00061B021B0A034313620024C8
:1054600007238C600B608021136A09061B021B0A4C
:105470000B431362FC22254B196A0A431A62FC2271
:10548000196A92010A431A62A022196AD2020A43D7
:105490001A6220000021013400F076F80F2CF8D1B8
:1054A0001B4B1C005A7852B2002AFBDB194A5A8067
:1054B000194B1A00597EC9090129FBD0E421C90002
:1054C00099803F21D970537EDB09012BFBD0C0238B
:1054D00000205B011361907000F024F863785BB2E8
:1054E000002BFBDB0D4B0E4A6380D379DB09012BCC
:1054F000FBD04123537010BDFEE7C0460C000020D6
:10550000FFFFFF0010E000E000ED00E000040040BD
:10551000000C00401E4000000040004221400000FE
:1055200000480042164A00B51300517EC9090129FE
:10553000FBD00138042816D81969124A0A400F21F5
:105540001A615A788A4302F0BFF80308060B030079
:10555000110001220A435A7000BD11000322F9E72D
:1055600011000222F6E7F02311691B050B430F21FE
:10557000136153788B43190002230B435370EBE7FD
:1055800000400042FFFFFFF0182330B51D0004006B
:1055900045430820204A55192856013014D00329C4
:1055A00012D808006343D156D31802F08DF80228B0
:1055B0000E1B5868CB010221184A9B181A1840325A
:1055C0001170012282405A6030BD5868CB0106211B
:1055D000124A9B181A1840321170012282405A60F8
:1055E0009A61F1E75868CB0106210C4A9B181A18FA
:1055F00040321170012282405A605A61E4E75868D3
:10560000CB010221054A9B181A1840321170012261
:1056100082409A60D8E7C0467869020000440041A1
:105620001823F0B508245843114A13181C570134A5
:105630001BD0012635005F688356BD400D4ADB0153
:105640009A18906805420BD10C00601E8441D21953
:105650004032107834400336A400B0432043107029
:10566000044A9B18002901D15D61F0BD9D61FCE7F2
:10567000786902000044004118224243F8B52C4EDC
:105680000300B218127A52B2140001320ED0481C34
:1056900000240C280AD802F017F8071F1F1F1F1F2D
:1056A0001F1F1F0B0B0B0B00012464422000F8BDD1
:1056B000092905D100211800FFF766FF0024F5E74E
:1056C0000A2901D10839F6E700240B29EED10A395D
:1056D0001800FFF759FFE9E718225343F2185568FD
:1056E00001202C00F356134ADB016E089B18C9B247
:1056F00004409E19002C0DD00F2430363278090159
:1057000022401143C9B25B19317040331A781043FB
:105710001870D3E732000F27303216785B19BE437A
:105720003143117040331A7810431870BEE7C046F9
:105730007869020000440041FEE7704710B5FFF7AA
:1057400079FE02F0CFFAFFF7F8FF0120FFF79AFD8C
:10575000084C200001F018FA200001F0B7FAFDF71C
:10576000A5F9FDF7CDFA044B002BFAD000E000BFFD
:10577000F7E7C0465809002000000000F7B5060012
:105780000D000C008B180193019B671B9C4207D0F6
:10579000336821781B683000984701340028F3D122
:1057A0003800FEBD70B5040008000D0002F0D0FB0B
:1057B0002368020029005B682000984770BD10B57F
:1057C0000B1E02D0FFF7EEFF0300180010BD10B54E
:1057D000FFF7F5FF10BD10B503688A685B680968BC
:1057E000984710BD10B5FFF7EAFF10BD10B503686C
:1057F0001B68984710BD000010B50249FFF7D2FFA3
:1058000010BDC046D86C020070B50400FFF7D7FF8A
:1058100005002000FFF7F0FF401970BD70B50500CE
:10582000FFF7D9FF04002800FFF7E6FF201870BD3E
:1058300070B50400FFF7C3FF05002000FFF7DCFF91
:10584000401970BDF0B58BB06B46150000220533D2
:105850000600DA770800012D00D80A2509AC2900D6
:1058600001F0C2FFCAB2130037330700DBB20929C7
:1058700002D813003033DBB2013C2370002FEED18D
:1058800021003000FFF79BFF0BB0F0BDF8B506001C
:105890000C00151E04D10368C9B21B689847F8BDF7
:1058A0000A2A0CD100290BDA2D21FFF79FFF614254
:1058B00007002A003000FFF7C5FF3818EFE7D2B223
:1058C00021003000FFF7BEFFE9E710B5FFF7DEFF6C
:1058D00010BD70B50400FFF7D9FF05002000FFF7E9
:1058E0008BFF401970BD10B5002A04D10368C9B2FE
:1058F0001B68984710BDD2B2FFF7A4FFFAE710B5B6
:10590000FFF7F1FF10BD000010B50400FFF7D2FC57
:10591000014B1C6010BDC046100000200122024B4C
:1059200052421A607047C04610000020164A10B557
:105930001368591C26D0013B1360002B22D172B68C
:10594000124B134A0433934213D9124A0121100017
:10595000147D0C42FCD02021148BFF319B085B008E
:1059600021431183D3610C4B13800123027D1A4222
:10597000FCD0BFF34F8F094B094ADA60BFF34F8F5A
:10598000C046FDE710BDC04610000020002000000A
:10599000030200000040004102A5FFFF00ED00E00F
:1059A0000400FA05016070479446F0B59E1E721E11
:1059B00096416246056892072F6836063A4332439D
:1059C0002A60072505AC24780068A40129402143FA
:1059D00042680024022B00D05C0311432143416044
:1059E000F0BD30B5C0250368AD031C6812052A4020
:1059F0002243C0240904A402214011431960036812
:105A00005A6814435C6030BD0123026811680B437F
:105A1000136003681A68D207FCD4DA69D207F9D494
:105A200070470223026811680B4313600268D36950
:105A30009B07FCD4704703681A7ED20702D41A7EF3
:105A40009207FCD57047002203685A8370470368A9
:105A5000187E4007C00F70470368187EC009704762
:105A6000802302685B42117E0B4313767047036804
:105A7000588B8007C00F704702230268518B0B437D
:105A8000538370470368187EC007C00F70470368D0
:105A9000188DC0B2704703681A7ED207FCD589B250
:105AA000012019857047012203689A757047012209
:105AB00003681A757047000070B5012604684B082A
:105AC00033403140256809075B070B432B432360B4
:105AD00004685100034801F001FE0138C0B2207390
:105AE00070BDC046006CDC020123026811680B43E4
:105AF000136003681A68D207FCD4DA69D207F9D4B4
:105B000070470223026811680B4313600268D3696F
:105B10009B07FCD470470368DA699207FCD4022122
:105B20001A688A431A6070470268936A5B0A5B02CC
:105B30001943916203681A7E5207FCD5986AC0B275
:105B4000704700000368214A30B593422FD0204AA5
:105B500093422FD01F4A93422FD01F4A93422FD0F7
:105B60001E4A93422FD01E4A93421FD10E23192260
:105B70000121032599401B48C024016099082B404E
:105B8000AB40FC359D4089000918A4000859A84382
:105B9000C0259D402B0003430B518023DB011A439A
:105BA000114B5A805A7852B2002AFBDB30BD0923D0
:105BB0001422DDE70A231522DAE70B231622D7E7A2
:105BC0000C231722D4E70D231822D1E70008004246
:105BD000000C004200100042001400420018004275
:105BE000001C004200E100E0000C0040F8B5040099
:105BF0000F0016001D00FFF7A5FF2000FFF704FFB0
:105C00001C21BB000B4071072268090C0B43136079
:105C1000842322689375012F1AD11021012E00D000
:105C200008390C4B69431868C00001F057FD072282
:105C3000216802408B895203DB04DB0C13438B8108
:105C4000226803049089DB0C400B400318439081C9
:105C5000F8BDC0460C000020F7B50600019308AB64
:105C60001F780D001400FFF73FFF3000FFF76AFFB9
:105C7000C022240592031440BA070C2717433C4363
:105C8000C0270722BF022D0433683D4025431D6015
:105C9000019B316813401A0080239B0213434B6021
:105CA000F7BD01207047000010B50368014A1B6A68
:105CB000984710BD130400000300FC33D9699A69AA
:105CC000914203D0DB69C018007D7047012040423B
:105CD000FBE710B504000069FFF796FE22000023E1
:105CE000FC329361D36186229200A4186360A360A2
:105CF00010BDF02001403039484248417047F02340
:105D00001B011940802306209B0099420AD00133D1
:105D1000FF330130994205D0802302385B0099425D
:105D200000D0002070470F2001400020012903D03F
:105D30000239481E8141481C704700008923F0B594
:105D4000182685B002919B000400C05C3300082136
:105D50004343324D1700EB185956FFF78DFC304B7B
:105D60000821E05C33004343EB185956FFF784FCED
:105D70002C4BE25C0393022A09D11133E05CFF282B
:105D800005D008214643AE197156FFF775FC8A26E7
:105D9000B600A05DFF2819D00121FFF7F5FB1822FE
:105DA000A35D21495A43AB56AD18DB0158188B212E
:105DB000890060501D4901225B188C2189006350C5
:105DC00069688A408D21890062501A600122029B15
:105DD00011002069FFF70AFF39002000FFF78FFF4D
:105DE000390005002000FFF79EFF39000600200063
:105DF000FFF77FFF33000090290020690122FFF7A1
:105E0000D3FD0B4B2069E25C039BE15CFFF7E9FDEE
:105E10002069FFF706FE05B0F0BDC04678690200B4
:105E200025020000270200001844004114440041EC
:105E300026020000802210B504005200002101F06B
:105E4000A8FF23000022FC335A6020009A6010BD96
:105E5000F7B51D0008AB1B780400009309AB1B7855
:105E60001600019300234360FA239B008360114BCB
:105E70000F00083303601430FFF7DCFF20001D30F3
:105E8000FF30FFF7D7FF89236A469B002761E6545E
:105E9000094B1278E554094B2000E2546A46084B3E
:105EA0001279E2548A22293BFF3B9200A35410321C
:105EB000A354FEBDDC6C0200250200002602000097
:105EC000270200000300FC3358689B68C01A01D504
:105ED0000130FF30704710B5040020001D30FF3046
:105EE000FFF7F0FF0028F8D12069FFF7A4FD10BDEF
:105EF00010B51430FFF7E6FF10BD0300FC335968FE
:105F00009A68914204DB5A689868801AFF3070479B
:105F100098685B68C01A0138F9E710B51D30FF308A
:105F2000FFF7EBFF10BD10B504000069FFF79FFD00
:105F3000002805D02069FFF7AAFD2069FFF79CFD26
:105F40002069FFF784FD002820D02069FFF79FFD1E
:105F50002200FC329369D1690133DBB28B4203D05A
:105F600091696118087593618A239B00E35CFF2B9C
:105F70000CD020001430FFF7C0FF092806DC8B236B
:105F80008D229B009200E358A2581A602069FFF707
:105F900079FD00281AD020001D30FF30FFF792FF56
:105FA000002822D086239B00E31899685A68914202
:105FB00018D08E219A684900A218515C9A68013263
:105FC000D2B29A60C9B22069FFF765FD2069FFF778
:105FD00043FD002805D02069FFF742FD2069FFF747
:105FE00032FD10BD01214942ECE72069FFF75FFD5A
:105FF000ECE7000070B5040000690D00FFF742FDFA
:1060000000283ED1FF2686239B00E3185A68996832
:10601000013232408A4223D1EFF31083DB0710D4E0
:106020001E4B5B68DB05DB0DEDD0103B5BB2002B3C
:1060300010DA0F221340083B9B08194A9B009B185B
:106040001B682069FFF71EFD0028DCD02000FFF749
:106050006AFFD8E79B08C033124A9B009B58F0E7C1
:106060005A68013216409A68964205D08E215A68C5
:106070004900A21855545E602069FFF714FD012005
:1060800070BD20001D30FF30FFF71CFF0028B9D184
:1060900029002069FFF7FFFCF1E7C04600ED00E0B2
:1060A0001CED00E000E100E0030070B5FC33D969AD
:1060B0009A69040091421AD0DA698218157DDA696A
:1060C0000132D2B2DA618A239B00E35CFF2B0CD051
:1060D00020001430FFF711FF0A2806DD8C238D22E3
:1060E0009B009200E358A2581A60280070BD012559
:1060F0006D42E8E710B50400006801F025FE2000BD
:1061000010BD10B504000068002801D001F01CFE8D
:1061100000232360A360636010BD70B504000D0010
:106120000068013101F0E6FE031E01D0012028C401
:1061300070BD036810B50400002B04D043688B4287
:1061400001D3012010BD2000FFF7E7FF0028F9D0A0
:10615000A368002BF5D122681370F2E770B50E002A
:10616000110004001500FFF7E4FF002804D120000F
:10617000FFF7C7FF200070BDA5603100206801F067
:10618000DFFEF7E770B5050008000C0001F0E0FE47
:10619000210002002800FFF7E1FF70BD10B50023C9
:1061A00004008AB023606360A360080001A901F0C5
:1061B0007EFA200001A9FFF7E5FF20000AB010BD1C
:1061C0000020704770B50F26CB1D01390200324008
:1061D000D5B22C0000093034092A00DD07341C70C8
:1061E000013B8B42F2D170BD10B50C000B4B18680F
:1061F000FFF7E8FF21000A4B08311868FFF7E2FFBC
:106200002100084B10311868FFF7DCFF2100064B16
:1062100018311868FFF7D6FF202010BD0CA08000B1
:1062200040A0800044A0800048A0800008B4024B39
:106230009C46103808BC6047E961000070473F2069
:10624000704713B56B460268D9710733546819005B
:106250000122A04716BD000070B50A260B7892B047
:106260006E44023305000B703C220021300001F027
:1062700090FD394801AC069038482421079006204B
:1062800020776846364AA1742281364A364BA2816D
:10629000FD3AFF3A8018C177684623390630C17746
:1062A00068460730C17702A8C1770720F277032636
:1062B00008316944C87703A9CE7710212B366E4484
:1062C0003170092621851F3169440E700CA9053EE5
:1062D0000E7033212380022369440B7006360DA90A
:1062E0000E7022493536A1863B216E44307010A8CD
:1062F0006274E27702703D3269446A440B70137035
:1063000040210022E37023716371A37341336B4416
:10631000218719705A702B7DC039A370A3726377DF
:106320000133DBB2A3776A7D0B200D00684415436F
:10633000C5773120684403703A23501C6B441870B1
:10634000412302320A436B441A702100422208485A
:1063500000F050FF12B070BD1001042402060524A5
:106360000904000001020000080B000007050000FE
:106370005809002008B4024B9C46103808BC6047FE
:106380005962000070B5027D0B790C0000259A421D
:106390000BD10B784E78A12B09D1212E05D10722E4
:1063A0001F49204800F026FF0135280070BD212B31
:1063B000FBD1202E2BD1072219491A4800F05CFE90
:1063C000174B1A785978090211439A78120411432D
:1063D000DA7812060A439621C9008A421DD1DB7978
:1063E000DB071AD4FA20FFF78FFA00210D4801F0DD
:1063F0000DF80125232ED8D1E378A2781B02134390
:10640000094A00210748136001F000F8CDE7222E69
:10641000EFD18A78024BDA71D2E7FFF77FFAE4E72F
:1064200018000020580900201400002008B4024B76
:106430009C46103808BC60478563000010B5417D5C
:10644000006A013100F050FD034B1B6801335A1EF6
:106450009341181810BDC0462000002010B5417DA2
:10646000006A023100F056FD10BD10B5417D006A92
:10647000023100F01DFD10BD70B50D00417D04001E
:10648000130002312A00006A00F00AFE002801D140
:106490000123636070BD000010B5054C23685A1CD1
:1064A00004D103685B69984703002060180010BDA1
:1064B00020000020074A0300106810B5411C03D0DB
:1064C00001235B42136010BD597D186A013100F051
:1064D00097FDF8E72000002070470020704700007B
:1064E000FA239B0010B583600F4B0022C382030088
:1064F000283383610D4B04004260C26118004433AD
:1065000023610830631D21622060DA778323A36250
:10651000813BE3628033236300F0AEF82100103149
:1065200000F07EF8200010BD03020000106D020094
:10653000022110B5094B1A68437D5B01D318FF3364
:106540009C7A21439972437D0133DBB25B01D318FE
:106550000122FF33997A0A439A7210BD100E00206F
:106560007047000010B502490248FFF7B9FF10BD9F
:1065700058090020F008002070B50E00002544687E
:10658000002C0BD0236831005B682000984700285E
:1065900002DB2D18E468F3E701256D42280070BD89
:1065A00070B50D004468002C08D0236829009B6852
:1065B00020009847002802D1E468F4E7200070BD6D
:1065C00070B50D0000264468002C09D0236829000E
:1065D00020001B69984736182D18F6B2E468F3E7D7
:1065E00030002C7070BD70B50D004468002C08D0D0
:1065F000236829001B6820009847002802D1E4681E
:10660000F4E7200070BD70B50D004468002C06D082
:1066100023682000DB6829009847E468F6E770BD2E
:10662000F0B58C79457803002A190020072A1FDC71
:106630005A68824216D159601A78C8790A711218BC
:106640004D711A7000220B4DD0B284420FD98F6861
:1066500058789600F759860001307751013258700A
:10666000F2E70200D0680028FBD1D160E4E7012006
:10667000F0BDC046300900200121064A10B513685C
:1066800005480B4004D180246400048043601160FD
:1066900010BDC0462409002028090020704710B50D
:1066A000040001F00CF8200010BD0000F0B58229B4
:1066B00019D1C3B2294D5A01AA189169284C8001F9
:1066C0000C40C021890521439161264908334018B7
:1066D0007021506128685B011A5C8A4311003022E6
:1066E0000A431A54F0BD0029FCD1C026C1B21B4C8C
:1066F0004B01E3189A681A4DB6052A4032439A6056
:10670000194A800182185A600A0007272468083253
:106710005201115DB9430F000121394311559F69A1
:1067200010493D4040182E439E6158617020115D14
:106730008143080010210143115599680B48A218A4
:10674000084080214903014399609968890B8903B6
:106750009960402311790B431371C3E7100E002099
:10676000FFFFFF8F84090020440B0020FF3F00F053
:10677000EFF3108303600123436072B67047036830
:10678000002B02D162B6BFF36F8F7047F7B50600DA
:10679000FC36B3690400002B18D1B2277F00C55D19
:1067A0006846FFF7E5FF019BEDB2013B02D3E55DD3
:1067B000EDB2FAE768460193FFF7E1FF002D01D142
:1067C0000020FEBD706E336EC01AFAE76846FFF710
:1067D000CFFFD8220025019B5200013B02D3A55CCC
:1067E000EDB2FAE768460193FFF7C9FF002DE7D045
:1067F000D6235B00E058043BE358E5E710B5446856
:10680000FC3043690B48DBB25A01A2189168083387
:106810000840802149030143916091685B01890B25
:10682000890391602268D318402219790A431A71AA
:1068300010BDC046FF3F00F0F7B50500FC356B69A1
:106840004268DBB2190004000831106849014118A0
:10685000C979C90711D55B01D21893689B049B0CB9
:106860000CD12000FFF7CAFF63681A686B69DBB2BE
:1068700008335B01D3187F22DA71F7BDE96900297B
:1068800023D16B66230001266933FF33EE6168462E
:106890005360B227FFF76CFF7F00B221019BFF31ED
:1068A000013B5A1C38D0D822E6555200A25C581E33
:1068B000D2B26254625C8446002A04D12000019363
:1068C000FFF79CFFE9E76346EBE7D62149006350F9
:1068D0000023EB6123001D33FF3353606846D82645
:1068E000FFF746FF01277600B221019BFF31013BF4
:1068F0005A1C11D0B222A7555200A25C581ED2B227
:106900006254625C8446002A04D120000193FFF7A0
:1069100075FFE9E76346EBE768460193FFF72FFF52
:10692000A2E7F7B5060068463400FFF721FF00270D
:10693000FF22019BFC34013B0DD3E06821698842B2
:1069400004DBE7682069D71B3F18F4E72769E16893
:106950007F1A013FEFE768460193FFF710FFA36935
:106960006846002B52D1FFF703FFB221019B49007B
:10697000013B5A1C0CD0755C5A1EEDB2002D05D19E
:1069800068460193FFF7FBFE2800FEBD1300F0E709
:10699000684601930025FFF7F2FEFF22236EBD42F9
:1069A00014D0616E994211D9591CF3182166FF3336
:1069B000587FE36821690133C0B213408B4203D092
:1069C000E16871180872E3600135E7E7626E9A4288
:1069D000DAD1002323660133A3616846B224FFF7AE
:1069E000C7FE6400B2220021019BFF32013B581C0C
:1069F000C6D03155B05C5F1E002805D0B1543000C0
:106A00000193FFF7FBFEEDE73B00F0E7FFF7B0FE79
:106A1000D821019B4900013B5A1C06D0755C5A1EC7
:106A2000EDB2002DACD01300F6E768460193FFF7F6
:106A3000A6FED623D4225B0000259C465200B35804
:106A4000BD4203D061467158994220D86246B2587F
:106A50009A4299D1D42200235200B3506846A361D0
:106A6000D824FFF785FE6400B2220021019BFF328B
:106A7000013B581C00D183E73155B05C5F1E0028F4
:106A800019D0B15430000193FFF7B8FEECE7591C60
:106A9000B150FF21F3186933FF331878E368C0B2AF
:106AA00001330B4021698B4203D0E16871180872F1
:106AB000E3600135C3E73B00DBE710B50400FFF7F7
:106AC00030FF2300FC331969DA68914203D01B6957
:106AD000E418207A10BD01204042FBE710B5040005
:106AE000FC34FFF71EFFE0682369C01A01D50130AE
:106AF000FF3010BDF0B585B0019200910500FFF7A1
:106B000010FF02A8FFF734FE01200024FF26039B9C
:106B100040425A1E531C1FD02B00FC3301998C425B
:106B200018D2D9681F69C91B01D50131FF3100296D
:106B300010D01969DF688C460100BC4506D0196980
:106B40001F69691801373740097A1F61009F39555D
:106B50000134E3E7013ADDE702A80392FFF70FFEF5
:106B6000200005B0F0BD37B56B46DC1D00230D00DD
:106B70002370FFF781FD2100FFF7FEFC2B6818183A
:106B8000286020783EBD00002023F7B5414A05006B
:106B9000D1690F200B43D36101223F490B78134386
:106BA0000B703E4B19788143197006211C782143E4
:106BB00019703B490C7822430A701A7802401A7007
:106BC000602219780A431A70364B374A5A805F7828
:106BD000FF09FCD13548FEF719FB0123344C354E33
:106BE0002268300011780B43137080223900520064
:106BF00001F0CFF822689378DB07FCD456621F2699
:106C00002D4B1B68590B980C9B01314030405B0F9A
:106C1000B14200D105211F2800D10238072B00D135
:106C2000043B31408901178D0191244930400F40C8
:106C3000019939431185118D0700B143080038438C
:106C40001085118D18031E4B0B407F2103431385C4
:106C50001378C1200B401370042322688000117840
:106C60000B430C211370226813898B431549138140
:106C70000B581B021B0A0B5080230B6011787E3BC4
:106C80000B431370012300212B700F48FFF768FCA2
:106C9000F7BDC04600040040584400413C44004158
:106CA00059440041000C0040064000001D760000E1
:106CB000100E0020140E0020246080003FF8FFFF1B
:106CC000FF8FFFFF00E100E0F008002000780028BF
:106CD00010D00121084B1B681A898A431A810822A7
:106CE000198B0A431A830422198B0A431A83002240
:106CF000024B1A607047C046100E0020080E00209C
:106D000010B50F4A93699B0B9B0393611368022292
:106D1000FF331A729879823A02439A711A7A92076B
:106D2000FCD57F24074A2140937A0800A343190029
:106D3000802301439172917A5B420B43937210BDA1
:106D4000100E00200050004110B50C00FFF794FC1D
:106D50002100FFF748FC002804D1034A93699B0BEC
:106D60009B03936110BDC046100E0020F7B50D00C7
:106D7000832A19D1CBB2404C5A01A21891693F48DD
:106D8000AD010840C0218905014391613C4920685B
:106D90006D187021083355615B011A5C8A4311003C
:106DA00040220A431A54F7BD022A5FD1354B8A00AC
:106DB000D058002802D003685B699847DA20400069
:106DC00000F079FC802204002B4E2F4B46600360BC
:106DD00052000021083000F0DCFF2200B221002325
:106DE000FC324900D3605561136113669361D3612E
:106DF0005366635444316350043163500431635427
:106E0000B221FF316354FF202B000340590101934D
:106E100071188F68194BAD003B40C027BF051F4359
:106E20008F600727019B366808335B01995DB94382
:106E30000F000321394399552300516966680140C9
:106E40001D334901FF3371184B60636852691B6839
:106E5000024052019B1801221B18997A20000A4314
:106E60009A72FFF7CBFC074BEC509CE7110028000F
:106E7000FFF71CFC97E7C046100E0020FFFFFF8FB6
:106E8000840900205C090020706D020070B50500C7
:106E90000124064BA200D258002A06D02100280067
:106EA0000134FFF763FF0A2CF3D170BD30090020D5
:106EB0000B4BCAB20B488901C9185301C318596159
:106EC00099690832890B89039961036852019A18FC
:106ED0000223D3715179823B0B4353717047C046F3
:106EE00084090020100E0020084B8A00D05810B5ED
:106EF000002803D003689B68984710BDC9B2044BB3
:106F00004901591888688004800CF6E75C09002064
:106F1000100E002010B50C00FFF7E6FF00280CD083
:106F2000064BE4B21B68083464011C1980236279A3
:106F30005B42134363710223E37110BD100E002006
:106F4000F0B51C002A4B85B01B6807000D000292AB
:106F5000002B4AD0274B8A00D058002808D003685D
:106F600022005B68029998470400200005B0F0BD3C
:106F70003800FFF7B9FF844204D929003800FFF731
:106F8000B3FF04000121EBB21B4E03935B0101939D
:106F9000F21893689B0B9B039360019A33680298E5
:106FA0009B18FF335A7A0A435A72144BA901C91825
:106FB000220000F0E5FE002CD7D029003800FFF7B2
:106FC00093FF0028D1D14021039B326808335B0135
:106FD000D3181879014319710121D971019BD31874
:106FE000FF339A7A0A439A72BFE701246442BCE7EE
:106FF000080E00205C090020100E0020440B002029
:1070000013B56B46DC1D22000123FFF799FF012811
:1070100001D1207816BD01204042FBE770B5CBB20C
:10702000124A13485C01890189180219516091685C
:10703000104D08330D4080214903294340259160BC
:107040009168890B8903916001685A018A18167941
:107050003543157195796D06FCD55B01C918CB795F
:10706000DB07FCD500198068C0B270BD440B00205E
:10707000100E0020FF3F00F070B50D00002114003D
:10708000FFF7CCFFA04200D9200000230349A34210
:1070900003D0CA5CEA540133F9E770BD440B002009
:1070A000F0B51E003A4B85B01B680F000192002B13
:1070B00035D08023DB019E4231D80025354B8A0133
:1070C000D3180293002E2CD0334B1B680393FF235D
:1070D0003B401C0000930834039B64011C19A379F6
:1070E000DB0921D02D4B2E49186800F0F7FA2D4B03
:1070F0001721584300F0F2FA2B4BE279920713D490
:10710000DA5D002A01D10138F7D20122DA55009B5D
:107110005A01214B9B189A69920B92039A6101259F
:107120006D42280005B0F0BD00221F4B3400DA5537
:107130003F2E09D9009B40245A01174B9B188022EF
:10714000996912060A439A6122000199029800F097
:1071500017FE009BA1045A010F4B890C9B18029A41
:107160002D195A619A69361B920B92030A439A6150
:10717000009B039A08335B01D3180222DA71597914
:10718000823A0A435A71019B1B1901939AE7C04640
:10719000080E002084090020100E00200C000020A2
:1071A00040420F00701101007909002070B50D00F8
:1071B0001C000D4BAE01F61811003000220000F04B
:1071C000DFFDEDB209496D014D196E61AB69084AE9
:1071D00020001340AB61AB69A2049B0B920C9B0394
:1071E0001343AB6170BDC04684090020100E00201F
:1071F000FF3F00F0F7B5104B01901B780F00150012
:10720000002B0CD10D4B16001C78002C09D00C4E15
:107210000C4834882018641900F0B2FD348028002E
:10722000FEBD002EFBD03A19330000210198FFF774
:10723000BDFF2418361AF4E7040D0020050E0020C7
:10724000060E0020050D0020F8B50F0016000024E2
:10725000012A26D9100000F06DFD0500380000F06D
:1072600077FE032302220130400028706B709642A3
:107270000DD9397800290AD0531CDBB20137A95443
:107280009E4203D00232EC54D2B2F0E73200290021
:107290000548FFF7AFFF441EA041C4B2280000F02C
:1072A00053FD2000F8BDC04658090020F0B5002469
:1072B000012685B0184B0F0069461E70050000942A
:1072C000FFF751FC154B01A90B806A3BFF3BCB71CB
:1072D0005A330B72009B8C7109334B800E4B4E71ED
:1072E00008711C703A00092F0FD00D4F09223E7013
:1072F0000C4E280000943480FFF77CFF694628007C
:10730000FFF731FC328808493C702800FFF772FF14
:10731000012005B0F0BDC046040D002009020000A8
:10732000050E0020060E0020050D002070B5CE7859
:1073300092B005000C00022E0BD18B79C9792E4832
:1073400009021943FFF7B2FF411E8841C0B212B0D3
:1073500070BDFFF791F92100FFF722F9002803D053
:10736000C117081AC00FF2E7012E0ED1E279A379F6
:1073700012021A432149112A3CD8D2B2002A39D02C
:107380002800FFF737FF0120E1E7032EDFD1A378C4
:10739000002B28D0022B08D1E279A37912021849D8
:1073A0001A432800FFF750FFD1E7012B05D1E279FE
:1073B000A37912021A431349F3E7032BC7D1010043
:1073C000412201A800F0E5FCFFF756F901A9FFF7FB
:1073D000F7F8002805D0E279A37912021A4301A92F
:1073E000DFE70378FFDEE279A37912021A43064948
:1073F000032AC2D90A78C3E758090020AC6D0200FD
:107400008C6D0200A06D02009C6D0200CBB204499D
:107410005B01C9188B699B0B9B038B617047C0464E
:10742000100E002037B5050048780C000B2810D846
:1074300000F04AF9061B0F2B0F404561494C5A5D7D
:10744000097801AA002906D1022311802800FFF73C
:10745000ADFE01203EBD00231380284B1B78012B7D
:1074600000D1137002230021F0E78A780023012A5B
:1074700003D101AA1380224BF0E7204A1370214A5E
:1074800093699B0B9B039361E3E78C78012C06D1F6
:1074900000211B4B01AA1C7011702300D6E70120AC
:1074A000002CD7D1154B174A187093699B0B9B037F
:1074B0009361CFE789782800FFF722FCC9E728000D
:1074C000FFF734FFC6E701230F4ACCE70B78002013
:1074D000DB06BFD12800FFF7D9FCA2780A4B0B4886
:1074E0001A60FFF725F8CAE70123094ABBE78A7843
:1074F000074B1A60C3E70020ACE7C04678090020BC
:1075000080090020100E0020080E0020F008002046
:107510000C0E00203B4BF7B51E780500002E5FD106
:10752000394C23689A8B12070DD5082231009A83B3
:107530003000FFF7BBF810222368FF33997A0A4323
:107540009A72324B1E6023689A8B520701D504222F
:107550009A83FF331A7A920603D52022597A0A4376
:107560005A721A7AD20623D569460800284AC0CA38
:10757000C0C0A268920B9203A260402258790243D5
:107580005A7160230A7828001A422AD1FFF74AFF6D
:107590002368FF33002827D08022997952420A437A
:1075A0009A711A7A520603D54022597A0A435A72BE
:1075B0007F2601252368FF331E722F0023680837BA
:1075C0007F01DB19DB79002B07D0124BAA00D058C2
:1075D00000280DD003681B6898470135082DECD1B1
:1075E000F7BDFFF7B1FBD3E720210B4A9171D8E734
:1075F000FFF742F82900FFF706F82368DF19FE714C
:10760000EBE7C046050E0020100E0020080E0020FB
:10761000440B00205C090020FF50004110B50248D7
:10762000FFF778FF10BDC04658090020014B024A01
:107630001A607047100E002000500041F0B50C0099
:107640008BB01600002926D0931E222B2DD80A2A93
:1076500005D1002803DA0127404201AD0AE00027E6
:10766000FBE7310000F0C0F8CBB2092916D830335F
:107670002B7001352A000028F3D101ABAB42F0D0CA
:107680002300002F02D02D21631C217001A98A4202
:1076900006D800221A7020000BB0F0BD5733E7E780
:1076A000013A117819700133F0E70024F3E710B5BF
:1076B000FFF7C4FF10BD10B500F03CFB10BD10B5C6
:1076C00000F042FB10BD000002B4714649084900B9
:1076D000095C49008E4402BC7047C0460022430842
:1076E0008B4274D303098B425FD3030A8B4244D38A
:1076F000030B8B4228D3030C8B420DD3FF220902CC
:1077000012BA030C8B4202D31212090265D0030B8A
:107710008B4219D300E0090AC30B8B4201D3CB0380
:10772000C01A5241830B8B4201D38B03C01A5241C2
:10773000430B8B4201D34B03C01A5241030B8B42C4
:1077400001D30B03C01A5241C30A8B4201D3CB02AF
:10775000C01A5241830A8B4201D38B02C01A524194
:10776000430A8B4201D34B02C01A5241030A8B4297
:1077700001D30B02C01A5241CDD2C3098B4201D3AF
:10778000CB01C01A524183098B4201D38B01C01A2D
:10779000524143098B4201D34B01C01A52410309A4
:1077A0008B4201D30B01C01A5241C3088B4201D353
:1077B000CB00C01A524183088B4201D38B00C01A00
:1077C000524143088B4201D34B00C01A5241411A27
:1077D00000D20146524110467047FFE701B5002034
:1077E00000F0F0F802BDC0460029F7D076E77047F8
:1077F00003460B437FD4002243088B4274D3030912
:107800008B425FD3030A8B4244D3030B8B4228D3B2
:10781000030C8B420DD3FF22090212BA030C8B42D8
:1078200002D31212090265D0030B8B4219D300E078
:10783000090AC30B8B4201D3CB03C01A5241830BFD
:107840008B4201D38B03C01A5241430B8B4201D3AD
:107850004B03C01A5241030B8B4201D30B03C01AD6
:107860005241C30A8B4201D3CB02C01A5241830A50
:107870008B4201D38B02C01A5241430A8B4201D37F
:107880004B02C01A5241030A8B4201D30B02C01AA9
:107890005241CDD2C3098B4201D3CB01C01A524110
:1078A00083098B4201D38B01C01A524143098B4299
:1078B00001D34B01C01A524103098B4201D30B0182
:1078C000C01A5241C3088B4201D3CB00C01A5241A7
:1078D00083088B4201D38B00C01A524143088B426C
:1078E00001D34B00C01A5241411A00D20146524105
:1078F000104670475DE0CA0F00D04942031000D324
:107900004042534000229C4603098B422DD3030A78
:107910008B4212D3FC22890112BA030A8B420CD388
:10792000890192118B4208D3890192118B4204D3B1
:1079300089013AD0921100E08909C3098B4201D331
:10794000CB01C01A524183098B4201D38B01C01A6B
:10795000524143098B4201D34B01C01A52410309E2
:107960008B4201D30B01C01A5241C3088B4201D391
:10797000CB00C01A524183088B4201D38B00C01A3E
:107980005241D9D243088B4201D34B00C01A524115
:10799000411A00D20146634652415B10104601D3A2
:1079A0004042002B00D54942704763465B1000D32C
:1079B000404201B5002000F005F802BD0029F8D0D2
:1079C00016E770477047C0468446081C6146FFE7CB
:1079D0001FB500F0A9F8002801D40021C8421FBD3E
:1079E00010B500F02BF84042013010BD10B500F08A
:1079F0009BF8002801DB002010BD012010BDC0460F
:107A000010B500F091F8002801DD002010BD012024
:107A100010BDC04610B500F039F8002801DC002088
:107A200010BD012010BDC04610B500F02FF8002891
:107A300001DA002010BD012010BDC04670B5420023
:107A40004E024C0045026D0A120EC30F760A240E38
:107A5000C90FFF2A0FD0FF2C11D00120A24200D065
:107A600070BDB542FCD18B420DD0002AF8D1280060
:107A7000451EA841F4E70120002DF1D1EBE70120DC
:107A8000002EEDD1E9E70020EAE7C04670B54A00D4
:107A90004E02450244006D0A240EC30F760A120EF0
:107AA000C90FFF2C15D0FF2A0ED0002C15D1002AAB
:107AB00001D1002E1CD0002D14D08B4227D00220E3
:107AC000013B1840013870BD002EEED0022040422C
:107AD000F9E7002DFAD1FF2A0ED0002A0ED1002E90
