:1020000000800020716400005964000059640000E1
:1020100000000000000000000000000000000000C0
:1020200000000000000000000000000059640000F3
:10203000000000000000000059640000C5640000BA
:10204000596400005964000059640000596400009C
:102050005964000059640000855700005D64000069
:102060005964000059640000596400009D3C000060
:102070005964000059640000C963000059640000FD
:10208000596400005964000059640000596400005C
:102090000000000059640000596400005964000009
:1020A000596400005964000059640000596400003C
:1020B0000000000010B5064C2378002B07D1054B1B
:1020C000002B02D0044800E000BF0123237010BDA4
:1020D000400200200000000088C30200044B10B53D
:1020E000002B03D00349044800E000BF10BDC046E8
:1020F000000000004402002088C3020010B5084917
:10210000041C06F0E5FE002807D10021201C06F083
:10211000CBFE002802D0002400E0014C201C10BDA2
:102120000000C84230B5164B164C85B02361012320
:102130005B42636114490500200002F075F9134BFE
:1021400020001B68D90FC9184910C9B202F067F9FD
:102150000F4B002023610F4B9D420ED80A2229000D
:1021600001A805F00AFA01A9200004F0B5FC01A8B5
:1021700005F09AF90120084B1D6005B030BDC0463E
:102180000800140000030020240B020004000020BB
:10219000080064009F8601001C00002010B510227A
:1021A000002101F09FFAFC2103124211DB0AC90051
:1021B000DB020A4000061343C00E184380B210BD74
:1021C000F0B51E0005000F00030087B005921A78D5
:1021D0005C1B002A01D00133F9E706235C430C9A0B
:1021E000544364106442A034E243D21714400C9A62
:1021F0005A4304922B78002B0ED00C9821B2C0B217
:10220000029005983AB200900196044802F070F8E6
:10221000049B0135E418EDE707B0F0BD0003002092
:1022200037B5114B114D441C2B610322104920007E
:1022300009F01DFB00280AD1472301930A3B0093B4
:102240000C4BA8220A21280002F079FD37BD032299
:102250000949200009F00BFB0028F7D1472301931F
:102260000A3B0093054BECE70800500000030020F8
:102270000ED1000040A3010012D1000024C50100CE
:1022800007B503000B4A0C484721026100229A70EF
:102290005B7820329343223201910092592B05D171
:1022A000064B6632133102F04AFD07BD044BA822EB
:1022B0005A21F8E70800500000030020946D020046
:1022C000E84802001FB5010001A805F037F901A890
:1022D00005F07FF900210F4C6161200002F0A4F8A5
:1022E0002000012102F09BF80B4B0C4923612000D8
:1022F00004F0E0FB0A49200004F0DCFB094920005F
:1023000004F0D8FB01A9200004F0CDFB01A805F0E2
:10231000CBF81FBD000300200A009B00EAD000009C
:10232000FCD0000000D1000070B5013008F09CFC2A
:10233000064D074C28600749200004F0BBFB2968C4
:102340000A22200004F047FC70BDC046FC020020B9
:102350009C0B0020D8D0000070B503004118082461
:1023600000200A4D8B420FD01A78120250402200F2
:1023700006B2400080B2002E00DA6840013AD2B2C4
:10238000002AF5D10133EDE770BDC04621100000F1
:1023900010B5074C0749200004F08CFB06492000CB
:1023A00004F088FB0549200004F0A0FB10BDC046E6
:1023B0009C0B0020C4B20200A9D10000FCD0000098
:1023C000012310B55B4206220721024803F0D6FF25
:1023D00010BDC0460003002007B50A4A904203DC46
:1023E000094B1B6893420BDD084A052301927822B2
:1023F000009200224B4306481BB2110002F0A7FADC
:1024000007BDC0460F2700001C0000205505000036
:102410000003002030B5013085B008F01FFC134BDD
:102420000500984203DCFFF77DFE05B030BD40217A
:10243000FFF7D2FF01230E4C5B42636120000021B5
:1024400001F0F2FF2000022101F0E9FF094B0A220E
:102450002361290001A805F090F801A9200004F0EB
:1024600022FB01A805F020F8DFE7C0469F860100A7
:102470000003002008001400104B07B5984203DC4D
:102480000F4A12689A420BDD0E4A8B0001927822A5
:10249000009200221BB209B20B4802F058FA07BDA5
:1024A0000A4B984201DC9A42F9DD064A8900019202
:1024B0007822009200220BB21100EDE70F270000F6
:1024C0001C0000205505000000030020E703000069
:1024D0000323F7B58AB25343104F013304001BB2F4
:1024E0000F48104DBC4203DC0F4E3668BE4208DD7B
:1024F000520011B2782200920022019502F027FAD0
:10250000F7BD0A4A944201DC964201DD09B2F1E7C7
:1025100078220092002201951100EFE70F270000BA
:1025200000030020550500001C000020E703000008
:102530001F4BF7B507000C001E4D1F4E984203DCE1
:102540001E4A12689A420DDD0321A2B25300514384
:102550007822013300921BB209B2019600222800B2
:1025600002F0F5F9164A974203DC144B1B689342BC
:102570000CDD6400A1B24B1C1BB209B278220092A0
:1025800000220196280002F0E2F9F7BD632F01DC7A
:10259000632B04DD630001331BB221B2EEE7782226
:1025A000009200220534640023B201961100E9E78D
:1025B0000F27000000030020550500001C0000202C
:1025C000E703000073B50D000521040006F016FCBA
:1025D0001D481E4A012906D1782301920093C83371
:1025E000002211000FE01A4BA9B29C4203DC194EE5
:1025F00036689E420ADD4B1C1BB2890009B201926B
:1026000078220092002202F0A2F973BD124B9C4284
:1026100001DC9E4204DD03244B1C1BB26143EDE749
:10262000632C01DC632E03DD4B1C1BB24900E5E784
:102630000A310BB2092C01DC092E01DD29B2DEE7DB
:10264000019278220092CBE700030020550500009C
:102650000F2700001C000020E7030000314B70B57D
:10266000314A1D68314B32491A61040006F0E0FA24
:1026700030490600280006F0DBFA0A21301806F07F
:10268000BDFB002904D040212000FFF7A5FE70BD4E
:10269000FA212000890006F0CBFA2749060028001D
:1026A00006F0C6FA0A21301806F0A8FB002904D06B
:1026B00040212000FFF7E0FEE9E76421200006F05A
:1026C000B7FA642106004942280006F0B1FA0A214F
:1026D000301806F093FB002904D040212000FFF7BA
:1026E000F7FED4E70A21200006F0A2FA0A2106002C
:1026F0004942280006F09CFA0A21301806F07EFBB9
:10270000002904D040212000FFF712FFBFE7601B23
:102710000A2106F073FB0029B9D040212000FFF701
:1027200051FFB4E71C000020080014000003002043
:1027300010270000F0D8FFFF18FCFFFF30B50400A1
:1027400085B003F0CDFE601C08F088FA164B04003B
:102750001B68834207D0154B984206DCFFF77EFFCB
:102760002000FFF7DFFC05B030BD4021FFF734FE4D
:1027700001230F4D5B426B612800002101F054FEE4
:102780002800022101F04BFE0A4B0A222B61210096
:1027900001A804F0F2FE01A9280004F084F901A8C0
:1027A00004F082FEDFE7C0461C0000209F86010087
:1027B000000300200800140013B5013008F04EFAA1
:1027C000074AA023019278220092002204005B00B5
:1027D0001100044802F0BBF82000FFF7A3FC13BD72
:1027E000550500000003002013B52824064B22B233
:1027F00001930092552312210448013401F098FB03
:102800007C2CF3D113BDC046550500000003002009
:1028100037B5A02500246D0022B20848A22C0ADC9E
:10282000074B019300922B000021013401F080FB43
:10283000F12CF1D137BD034BF3E7C0460003002074
:1028400055050000FFFF000073B547264225FFF73E
:10285000DFFF214C019600952000204BA8225A2131
:1028600002F06DFA41230193013B009320001C4BC1
:10287000A822A02102F063FA3D23019600932000D4
:10288000184BA8220A2102F05AFA46230026A82251
:1028900001930095144B2000E62102F050FA20002D
:1028A000002101F0C1FD66612000022101F0B7FDA9
:1028B0000E4D0F4B29002361200004F017F96661CB
:1028C0002000022101F0ABFD0A4B2900236120000A
:1028D00004F00CF973BDC04600030020E848020074
:1028E0004092020040A30100187F0100E6D00000E2
:1028F000F500B800AE00B80073B5013008F0AEF9CD
:10290000060064283BD8204C2049200004F0D2F86F
:1029100020000A22310004F03AF946231C4C0193AE
:102920000A2E2DDC043B00931A4BB825A822E62181
:10293000200002F004FA184B2361184B2AB20193CD
:10294000282301350092FF33F5212000ADB201F0BC
:10295000EFFAC72DF1D100212000616101F064FD83
:102960000221200001F05BFD0D4B310023610A22A2
:10297000200004F008F92521200004F09FF873BD21
:1029800042230093074BD0E79C0B002016D1000098
:102990000003002008E7010008005000FFFF0000CE
:1029A000F500B800187F0100F0B5013085B008F0DF
:1029B00055F906F087FBFFF7A1FB06F063FBB8268D
:1029C000354C2060354D364F32B2013601970092BA
:1029D000E023AE212800B6B201F0AAFA0397C72E71
:1029E000F0D1304E3049300004F064F80A222168FA
:1029F000300004F0CCF823680A2B1CDC0A23236087
:102A0000236800262A270A2B17DC206864217843D4
:102A100006F00EF9B04226DBF82331001B020193C9
:102A2000E223A83109B20093D0220B00280001F064
:102A30007FFA0136E9E76423E1E7206864217843FF
:102A400006F0F6F8B0420EDBFC233100DB00019308
:102A5000E223A83109B20093D0220B00280001F034
:102A600067FA0136E9E72A2320686421584306F013
:102A7000DFF8E22604002A2C0CDC2100039BA8319D
:102A800009B2019300960B00D022280001F050FA01
:102A90000134F0E705B0F0BDEC0200200003002097
:102AA000FFFF00009C0B0020BBD100001FB562237C
:102AB0006A460024137021000A2201A804F05DFD7B
:102AC000694600230422013101A804F068FD68462C
:102AD000FFF76AFF012003F039FD013401A804F07B
:102AE000E3FC652CE7D11FBDF0B5013089B008F0DB
:102AF000B5F8051E00DC84E0FA239E4C1B019842C9
:102B000040D19D4E3000FFF749FB0100200001F04D
:102B1000C1F90021200001F087FC984F3800FFF731
:102B20003DFBE082A0823800FFF738FB03903000C5
:102B3000FFF734FB052203001E2100929048039A00
:102B4000FFF73EFB3800FFF729FB03903000FFF74B
:102B500025FB02225A21030000928A48039AFFF7BC
:102B60002FFB2A00884905A808F052FE3800FFF71D
:102B700015FB05003000FFF711FB03220300009254
:102B80002A002CE0814B98423DD18149200001F080
:102B900081F90021200001F047FC012303265B425C
:102BA0006361073300937B4A794B1E217A48FFF714
:102BB00007FB774B774A5A2178480096FFF700FBCE
:102BC0007821734B734A76480096FFF7F9FA2A008A
:102BD0006D4905A808F01CFE00966D4B6D4A9621C4
:102BE00005A8FFF7EDFAFA20C00003F0AFFC0021C2
:102BF000200001F019FC0221200001F010FCFFF779
:102C000023FE09B0F0BD674BC318012B19D86049EA
:102C1000200001F03FF90021200001F005FC012314
:102C200003265B426361073300935A4A584B1E21C7
:102C30005948FFF7C5FA0096554B564A5A215A484B
:102C4000C3E75A4B5A4AC318934221D8504920002F
:102C500001F020F90021200001F0E6FB012303260A
:102C60005B426361073300934A4A494B1E214A483D
:102C7000FFF7A6FA464B474A5A214B480096FFF702
:102C80009FFA0223434A00937821414B49489CE72D
:102C9000F823FF33984229D13D49200001F0FAF88A
:102CA0000021200001F0C0FB012302265B4263618A
:102CB00007330093374A364B1E213748FFF780FA17
:102CC000334B344A5A213C480096FFF779FA304B8F
:102CD000304A782137480096FFF772FA2A002A49CD
:102CE00005A808F095FD0323009376E7FC235B001D
:102CF000984200D077E7204E3000FFF74FFA0100EE
:102D0000200001F0C7F80021200001F08DFB1B4FCF
:102D10003800FFF743FAE082A0823800FFF73EFA5E
:102D200003903000FFF73AFA052203001E210092BB
:102D30001348039AFFF744FA3800FFF72FFA03907D
:102D40003000FFF72BFA022203005A2100921A48A2
:102D5000039AFFF735FA3800FFF720FA03903000A6
:102D6000FFF71CFA0222030000927821039A11480F
:102D7000F5E6C04600030020CCD10000D3D100000E
:102D8000DAD10000E4D10000F7D10000A10F00006B
:102D9000E5F20000FFFF0000FBD1000001D20000BF
:102DA0000ED2000056F0FFFF1CD2000078ECFFFFAF
:102DB000CF07000027D200003BD20000F7B501305A
:102DC00007F04CFF504C051E00DA8BE0C82106F0DE
:102DD00015F80F1E00D085E0002D36D104264B4992
:102DE000200001F057F82900200001F01DFB474B9F
:102DF000474A009623214748FFF7E2F9434B444AEC
:102E0000009641214448FFF7DBF94449200001F0D6
:102E10000BFB434B20001B68D90FC9184910C9B2DE
:102E200001F0FDFA3F4B9D4245DD3F4B23610A22F5
:102E30002900200003F0ABFE2000002101F0F4FA8D
:102E40000221200001F0EBFA4CE0384E3000FFF791
:102E5000A5F90100200001F01DF83900200001F063
:102E6000E3FA3348FFF79AF907003000FFF796F9C5
:102E700003220300052100922E483A00FFF7A0F933
:102E80002B48FFF78BF907003000FFF787F9032283
:102E90000300232100921F483A00FFF791F92448CC
:102EA000FFF77CF907003000FFF778F903220300F1
:102EB00000923A00A5E7002D23D11F4B0A2223617F
:102EC0002900200003F063FE2900200001F0ACFA85
:102ED0000221200001F0A3FA184B194923612000B8
:102EE00003F004FEFA20C00003F030FB20000021B4
:102EF00001F09AFA0221200001F091FAFFF7A4FCF8
:102F0000F7BD104B92E7C04600030020E5F2000039
:102F1000FFFF0000C4D00000CED00000240B020050
:102F200004000020E70300001E00C800CCD1000010
:102F3000D3D10000DAD100008200C8006400DC00B8
:102F40001CD200005000C80070B5184C184906008B
:102F5000451C200000F09EFF0021200001F064FAD3
:102F600001235B4263610621200001F058FA114BF6
:102F700011492361200003F0B9FD104B02212361A8
:102F8000200001F04CFA0023EA5C002A02D0013351
:102F90009BB2F9E7F2542900200003F0A7FD08488E
:102FA00003F0D4FAFFF750FC70BDC04600030020C8
:102FB000E5F2000032001E00FBD1000032005A0092
:102FC00010270000862170B5174C49000600451CEB
:102FD000200000F05FFF0021200001F025FA01230E
:102FE0005B4263610621200001F019FA0F4B104982
:102FF0002361200003F07AFD0E4B022123612000A3
:1030000001F00DFA0023EA5C002A02D001339BB2E2
:10301000F9E7F2542900200003F068FD064803F0A8
:1030200095FAFFF711FC70BD0003002032001E006E
:1030300006D1000032005A001027000070B50E4C77
:1030400005000E49200000F025FF2000002101F0BE
:10305000EBF9002320006361022101F0E0F9F02385
:103060005B03691C2361200003F040FD044803F06A
:103070006DFAFFF7E9FB70BD00030020FFFF0000C1
:1030800088130000F0B50400374D8BB000212800F4
:1030900001F0CAF9601C07F0E1FD344B06009842CC
:1030A00024DD002486216C614900280000F0F2FE36
:1030B00086277F0003252E4B2E491A6802A808F0A8
:1030C000A7FB3B00220002A800951E21FFF778F81D
:1030D0003200294902A808F09BFB00953B00220022
:1030E0005A2102A8FFF76CF80BB0F0BD00282CDDC8
:1030F000002486216C612800490000F0CBFE1F49A6
:1031000002A808F0A5FB0125862322005B0002A887
:1031100000957821FFF754F8194902A808F098FBA8
:10312000862322005B0002A800958221FFF748F861
:10313000144902A808F08CFB862300955B0022004E
:103140008C2102A8FFF73CF8B2E70F48FFF726F8FA
:1031500007000E48FFF722F839000400E882A88231
:10316000280000F097FEA5E7000300208813000068
:10317000FC02002090D100009DD1000030D1000061
:1031800056D1000068D1000082D1000089D1000032
:1031900070B5202502780400AA43432A01D1FFF725
:1031A000CDFA2378AB43442B02D12000FFF732F94C
:1031B00020252278AA43482A02D12000FFF7B4F83C
:1031C0002378AB43492B06D12000FFF75BFF002299
:1031D0002C4B1A6170BD412B03D12000FFF750F832
:1031E000F5E7502B03D12000FFF71AF8EFE7542B37
:1031F00003D12000FFF780FBE9E7422B03D1200039
:10320000FFF7D2FBE3E7452B03D12000FFF76CFC6F
:10321000DDE7522B02D1FFF717FBD8E7462B03D18E
:103220002000FFF7CBFDD2E7512B03D12000FFF7A1
:10323000C3FACCE75A2B03D12000FFF785FEC6E77F
:10324000572B03D12000FFF7BDFEC0E74D2B02D165
:10325000FFF72CFCBBE7562B03D12000FFF732F819
:10326000B5E7472B03D12000FFF7E8FEAFE74E2B71
:10327000ADD1BFF34F8F044B044ADA60BFF34F8FD9
:10328000C046FDE70003002000ED00E00400FA0561
:1032900073B54E4C4E49200000F0FEF9E1212000AC
:1032A000490200F0EBF90121200000F0E3F9494D5B
:1032B00000280AD04849280003F0FCFB20000A211E
:1032C00000F0D3F9200000F0D7F9002120000122FE
:1032D00000F0D2FA0121200000F0CCF9002806D03D
:1032E0003E49280003F0E6FB200000F0C5F9E1218B
:1032F0002800490204F04AFBE1213948490203F061
:10330000ADFE384800F018FB374C0021200002F0D9
:10331000B5FF2000032102F0E7FF0121202003F088
:1033200097FA2000314900F0B5FD8223019328333C
:1033300032224B21009320002D4B01F000FDFA209A
:1033400047264225C00003F001F9FFF761FA019614
:1033500000952000274BA8225A2101F0F0FC4123C0
:103360000193013B00932000234BA822A02101F0F0
:10337000E6FC3D23019600932000204BA8220A2161
:1033800001F0DDFC462300950025A82201932000D2
:103390001B4BE62101F0D3FC65612000022101F006
:1033A0003EF8184B18492361200003F09FFBFFF7FC
:1033B0001BFA164B164A1D70DD729D725A60FEF79D
:1033C000E7FF03F08DF8134B186073BD80030020F6
:1033D000B80B00009C0B0020D4B40200E5B402003E
:1033E00040090020C803002000030020FFFF000068
:1033F00060D20000E84802004092020040A30100B1
:10340000187F0100F500B800E6D00000F0020020AF
:103410005C02002078030020F7B50121754B2020C5
:103420001A785140197003F05FFA734C200003F0D2
:1034300039FF002815DD200004F010F86F4BC6B2EC
:103440006F4C1E70A07A032809D805F05DFB023787
:103450003E62012E03D10023E6722381A370E37A3A
:10346000A372684C00220A21200002F099FF060096
:10347000942813D0644D6549280003F01BFB0A22F1
:103480003100280003F09DFB0021200002F0F6FE31
:103490000321200002F028FFFFF7D6F903F020F8FF
:1034A0005B4B5C4D1B680193C01A5B4B984259D92A
:1034B0002B780126002B65D12E70F7BD0223002248
:1034C000E372564BA6701A60C9E7544F544D242E30
:1034D00006D100232E703B603B6801333B60BEE7A2
:1034E00000213B685A1CEE54A954232EF4D12B78AA
:1034F000242B0BD1280008F0B3F9A378984205D10A
:103500000323E37201235B423B60E5E700232B705A
:10351000F7E7424F3B68002B08D1013336023B608E
:10352000268102F0DDFF3A4B186098E7012BF8D1B5
:103530002089A3783A4D064319002800268101937B
:10354000FEF70AFF864207D1019B3648ED1800239B
:10355000013D2B70FFF71CFE0023E3723B68013333
:103560003B60DEE72B78002BA7D0FFF76DF92E4BE1
:103570001868FEF7D7FD00232B7002F0B1FF244B33
:1035800018609AE7294F2A4D3B68334203D102F075
:10359000A7FF3E60286002F0A3FF2B68C01A254BEE
:1035A000984200D889E72449174803F09FFA234935
:1035B000200000F06FFC0021200000F035FF012307
:1035C0005B4263610621200000F029FF1C4B1D496E
:1035D0002361200003F08AFA1B4B022123612000A3
:1035E00000F01DFF1949200003F080FA02F078FF77
:1035F000286062E7E902002040090020E80200207C
:10360000F0020020000300209C0B0020B4B4020054
:10361000780300207C03002010270000E402002033
:103620005C0200205D0200201C000020DC02002063
:10363000E002002088130000C1B40200E5F200009F
:103640004B001E00FBD1000032005A000800002091
:1036500070B50C0002F044FF0500241802F040FF92
:10366000854201D88442F9D270BD10B50122FFF71E
:10367000EFFF10BD0120704770470000FA2010B521
:103680000C00800002F062FF2100024804F07EF985
:1036900010BDC0469C0B0020002310B5436443605E
:1036A000994201D0FFF7E1FF10BD000070B50E0098
:1036B0000500094C0949200003F0FCF90A223100F9
:1036C000200003F07AFA0649200003F00FFA2800E0
:1036D0003221FFF7CAFF70BD9C0B0020ECB4020042
:1036E000F3B40200F0B5070087B002900391009296
:1036F0003C787D1C200007F0F8FA061E0DD12D2C19
:103700000DD101237C78BD1C0193009B002B3DD083
:10371000102B47D1302C45D13BE02F00E8E701903A
:103720002B2CF2D1BD1C7C78EFE7200007F0D4FAF7
:1037300000280CD0200007F0E1FA3723002800D140
:103740002033E41AE4B244E00126764253E0002E2E
:1037500016DB019B002B00D06D42039B002B06D093
:10376000002E01D07B1E0293039B029A1A60280050
:1037700007B0F0BD009B3024002B13D1082310E0CC
:103780000125039B6D42002BECD1F0E70A23302C7E
:1037900007D120222B789343582BEBD16C78483BF0
:1037A0000235009301200099404205F0B7F90490DA
:1037B00001200099404205F037FA2F0000250591BD
:1037C00023007F229343C2D12300303B092BACD886
:1037D000DCB2009B9C42BADA002EB5DB0126049BCA
:1037E00076429D4207D802D1059B9C4203DC01260C
:1037F000009B5D4365193C780137E1E70022034BEC
:103800009A60DA601A615A617047C04680030020EE
:10381000F7B50191037E05006320002B08D0154EFB
:10382000FF27300004F020F8C0B2002801D1652045
:10383000FEBD300004F018F8C0B20028F7D0300008
:1038400004F04EF804003C40682C08D009DC582CE9
:103850000DD0632CEDD101992800FFF727FF6320DD
:10386000E6E7712CFBD0762CE3D1C0B2E0E7002371
:103870002B76F4E79C0B002070B50400150000299E
:103880000CD00123037600212000FFF7C1FF63283D
:1038900004D001212000FFF7E8FEF4E7257670BD93
:1038A00010B50C4CA14200D92100013A0160511E13
:1038B0008A414271012B0AD0002B04D0032B04D083
:1038C0000023037110BD0123FBE70223F9E7032363
:1038D000F7E7C046001BB700037D002B04D14375FA
:1038E000837583610133037570477FB5C36802AD8B
:1038F00004000E0002916A608B4203D1028AAB88F9
:103900009A4218D02000062229000C3007F03AFA1B
:10391000206803F072FA6B79227AE17900932068CB
:10392000002303F073FB20682979320003F036FA94
:10393000206803F058FA7FBD70B518260400FFF721
:10394000CBFF3300082120790D4D4343EB18595626
:1039500002F0F6FF33000821A0794343EB185956D3
:1039600002F0EEFF082160794643AD19695602F076
:10397000E7FF044B200006CBFFF7B7FF70BDC04642
:1039800004BC02000004002007B5437D00910192B1
:10399000002B07D09A070AD5EFF310835A42534100
:1039A000837572B60099019AFFF79FFF07BDDB0789
:1039B000F8D58369014A9BB29360F3E70018004091
:1039C000437D002B05D09A0704D5837D002B00D0C2
:1039D00062B67047DB07FCD58369024A9BB2D360AD
:1039E000F7E7C0460018004010B5006803F00EFA73
:1039F00010BD0000104A114B114913600023537190
:103A00001371104A104811601049D3609180092148
:103A100091710639537413741375D37111720C4A72
:103A200010600C48D36090801B205374137413757E
:103A30009071D371117270470004002000093D009D
:103A4000800B0020C80300208C0B00200A08000017
:103A5000E40300201D1A000000207047F8B505009F
:103A60000E0017000024BC4208D02B68315D1B6893
:103A700028009847002801D00134F4E72000F8BD61
:103A800070470300FC33196ADA69914203D01B6A5C
:103A9000C018007E704701204042FBE70300FC3362
:103AA000D8691B6AC01A01D50130FF307047000089
:103AB000F7B50193FA238026002504009B0083605C
:103AC000124B760008330F00456029000092036016
:103AD0003200183007F072F923002000FC33213047
:103AE000DD6132001D622900FF3007F067F987238E
:103AF0009B00E3185D609D606B461B782761237512
:103B00006B461B79A57520006375FEBDFCB40200F1
:103B1000020010B5FC32536894680133DBB29C425A
:103B200002D054680155536010BD002210B5837D4A
:103B300093420DD087239B00C4186368A4680133A7
:103B4000DBB2A34204D02130FF30FFF7E1FF0122B6
:103B5000100010BD0300FC3399685A68914206D0EA
:103B60009A68805C9A680132D2B29A6070470120EC
:103B70004042FBE710B51830FFF7ECFF10BD70B501
:103B80000400006903F086F9002814D0206903F0CE
:103B90008FF9002810D0206903F04EF90321206925
:103BA00003F054F98C239B00E558002D39D10023F4
:103BB000FC34E361236270BD206903F083F90028BF
:103BC00009D0206903F079F9002804D0206903F0B6
:103BD0007EF90028DFD0206903F074F9002826D18F
:103BE000206903F060F90028E5D0206903F06FF93F
:103BF000002837D087239B00E218536892689B1AED
:103C000001D50133FF33FF21002B05D020002130E7
:103C1000FF30FFF79FFFC1B2206903F02DF9A075B7
:103C2000C9E7236820001B699847A847BFE72069B8
:103C300003F002F92069032103F008F9206903F079
:103C400046F90028B7D0872300229B00E3185A606A
:103C50009A600123A3758B239B00E3589342AAD05B
:103C60009847A8E72200FC32D369126A0133DBB21D
:103C70002069934206D103F0D6F80321206903F0AE
:103C8000E5F898E703F028F9010020001830FFF765
:103C90003FFF206903F0D0F8EFE7000010B50248BD
:103CA000FFF76DFF10BDC0460804002010B50C23BF
:103CB0000B2202490248FFF7FBFE10BD840B0020D7
:103CC000080400207047F0B51D0089B00EAB002439
:103CD0001C5F0FAB1B8816000693A31ADA179B18FC
:103CE000534002936B1ADA179B1853400393039ABD
:103CF000029B0190934205DC23002C001D00330041
:103D00000E001900A64205DC2B000D00190023004F
:103D100034001E00331B9BB204934B1BDA179B1815
:103D2000534007936B4610229A5ED30F9B185B108B
:103D3000009301238D4221DA0593B44224DC019BD8
:103D4000039A1B689B691F00029B934218DD2200A7
:103D50002900069B0198B847009B079A9B1A9BB2C3
:103D60001AB20092002A06DA059AAD18049A2DB20A
:103D7000D3181BB20093013424B2DEE75B42DBE7C9
:103D8000069B2A002100E5E709B0F0BD704710B599
:103D900004682469A04710BD37B506AC25880468BF
:103DA0000095A46BA04737BD37B506AC25880468DD
:103DB0000095E46BA04737BD73B506AC0025655F81
:103DC00007AC2688046801960095246CA04773BD53
:103DD000F0B5160004000D0085B003930AAB1F88F0
:103DE00003685B699847039B2268013B9B191BB2E0
:103DF00000930197976A2B00320029002000B847F2
:103E000023682000DB6A984705B0F0BDF0B50500D7
:103E10001C000E00170085B00AAB1B88013C039301
:103E20000368A4195B69984703992A680191009770
:103E300023B23100946A28003A00A0472B6828007A
:103E4000DB6A984705B0F0BDF0B50E0087B003936C
:103E50000CAB029200229B5E050004930DAB1B8805
:103E60003400059303685B699847039A2B68B2187E
:103E700094420ADA059A210000921F6A029A049B72
:103E800028000134B84724B2EFE7DB6A28009847DE
:103E900007B0F0BD13B501910E24015F0C22835EC3
:103EA00002680091146C00221100A04713BDF0B508
:103EB000040015000E0087B004930CAB00229B5E3B
:103EC00005930DAB1B88039303685B699847039ABE
:103ED000236800925F6A2A00049B31002000B847E3
:103EE000059B03995A1E2368009152195F6A31009D
:103EF000049B200012B2B847039A236800921F6AFD
:103F00002A00059B31002000B8470499039A2368D2
:103F100001390092891909B21F6A2A00059B200005
:103F2000B84723682000DB6A984707B0F0BD7047A8
:103F3000F0B585B01E000AAB0027DF5F0BAB1B8816
:103F400014000500029103930268B14210D1BC42F3
:103F500002DC3B0027001C00039901340091E31BA5
:103F6000966B1BB23A0002992800B04705B0F0BD2D
:103F7000BC4211D1029BB34202DC3300029E029389
:103F8000029B0399013300919B1BD76B1BB222004C
:103F900031002800B847E9E753699847039A2B682E
:103FA000019200979F6A2800330022000299B847C7
:103FB0002B682800DB6A9847D8E70323194010B51F
:103FC0000822835E81760A24025F012904D0032936
:103FD00002D08381C28110BD8281C381FBE70000D2
:103FE0004281C2810122524242610222002310B565
:103FF000FF32074C0283013A0834FF3A4360046001
:104000000181818103618376C2760377036210BDEB
:1040100020BA0200F0B595B01D001AAB1B88040051
:1040200005931BAB1E881CAB1B78089103931DAB3B
:104030001B7804920293036A002B00D0C4E00C2288
:10404000835E8B4200DC7DE00E22835E049A934205
:1040500078DD0623039A53435B18002B72DD029B25
:10406000049ADB009B18002B6CDD037F002B03D12F
:10407000AF2D01D90135EDB2236820005B69984767
:1040800005235D430B9300230793984B5B190F9314
:10409000079A0F9B9B5C0A936B469B8B09936B461D
:1040A0009B890D936B460D9A1F8C099B5343FB18FC
:1040B0001BB20E9308230C930023069301220A9B44
:1040C0002068134252D06B461A8B198A039B012B2E
:1040D0003AD1029B012B37D1099B52188569D91916
:1040E000059B12B209B22000A847069B01335BB2C0
:1040F00006930A9B5B080A930C9B013BDBB20C9373
:10410000002BDBD1079B01335BB207930B9B013B79
:10411000DBB20B93002BBBD1059BB3420ED0039BAC
:104120002268012B3FD1029B012B3CD10537009621
:10413000156A39B20733049A2000A8472368200083
:10414000DB6A984715B0F0BD6B460C255B5F029D9E
:104150006A438A18059912B2019169460825495F98
:104160000091C5690E992000A847BEE7059BB342A0
:10417000BBD06B46198B1A8A039B012B0AD1029B79
:10418000012B07D1099B5218D91912B209B28569BE
:104190003300A8E76B460C255B5F029D01966943DF
:1041A000521812B2D9E76B460C215B5E05210D98BF
:1041B0000196414302987918C0000090D56909B270
:1041C000049A2000A847B9E71A7AAD1AEDB25A68E6
:1041D000ED001B68551913932B880993AB780D9349
:1041E000EB7811930523EB560E930623EB560F93B2
:1041F000039B012B02D8029B012B56D96B46382218
:104200009B5E0B936B463C229B5E0C9300272368BE
:1042100020005B69984707970697119B069A9A4278
:1042200000D38BE76B461B8A00260A930C9B9B18D6
:10423000029A53430A9AD3181BB210933B000D9A6B
:1042400096424BD25A1CD2B212920722134207D185
:10425000099B0999139A0133525C9BB20792099307
:104260006B461B7F5BB2002B17DA6B46198C039BE6
:104270002068012B1DD1029B012B1AD10A9B0F9A9A
:104280009A18069BD2180E9B12B2C9188369891915
:104290001D0009B2059B2000A847079B01365B0063
:1042A000DBB20793F6B2129BC9E700230C930B9382
:1042B000ACE76B460C229B5E0B9A039D92196A43F6
:1042C0008918059A09B201926A460825525F009240
:1042D000C26920001500109AA847DEE7069D0D9BD5
:1042E0000135FF18EBB2FFB2069396E720B5020046
:1042F0007FB508AC258809AC26880AAC24780196DD
:10430000009503940294FFF785FE7FBDF0B5026A25
:1043100085B004000B00002A34D10A2908D1437E5D
:104320000282DB00628A9B186382012005B0F0BD27
:104330000D29FAD0E17E007E657E00290ED0102680
:10434000A15F0626464389190C27E65FB14205DDC9
:104350001226A15F2282EA00521862820290E08A4D
:104360001221625E0190A08A1026A15F0090039541
:104370002000FFF74FFE0622237E5343228A9B181C
:104380002382D2E70A2905D100230382127B437ED0
:104390005343C7E70D29C8D0117A8B42C5D3907A11
:1043A0009842C2D3591AC9B25068C9004518AF78AB
:1043B000002F28D0E978002925D0E17E207E667E76
:1043C000002913D005216956C91941438C46102193
:1043D000675EBC440C21675EBC4507DD1227E15FC8
:1043E00000272782127B7243521862820290E08A71
:1043F0001221625E0190A08A1027E15F009003966F
:104400002000FFF707FE2B79227EB6E7002900D1B6
:1044100001310176002A00D101324276704710B591
:104420000A00FFF7F3FF10BD036A002906D0002B36
:1044300002D1438A0633438201627047002BFBD0CE
:10444000438A063BF7E70000F7B500260025002762
:104450000400019308AB9E5709AB5D5712B20AAB3B
:1044600009B2DF57FFF7BCFD1B4B00220833236066
:10447000230068335F700127DD701A709E70083367
:10448000E2661A80019B3900636318235D43134879
:10449000626743195B6899402B5661661049DB01DE
:1044A0005D18AC46E5620F4D5B19236396420DDB48
:1044B00018235E4383195B689F4033562766DB01F0
:1044C0005A185B196262A3622000FEBD6146A362B6
:1044D00061622266F8E7C04678BA020004BC0200B6
:1044E000184400411444004130B5040085B008A8C8
:1044F00009AD00782D7840B26DB20190009302951D
:10450000034B2000FFF7A0FF200005B030BDC046E0
:10451000C8030020F0B5040085B00F001600002984
:1045200000D1634F250000206A352856002807DB9C
:10453000012102F08DF900200121285602F0D4F962
:10454000250000206B352856012102F081F900205A
:104550000121285602F0C8F9230068331D78002D88
:1045600037D133000122390002A8FFF799F9200062
:10457000062202A9383006F005FC606B4D4B26641C
:10458000984202D04C4B984201D1FFF7D5F9002058
:104590006934205600281ADB012102F059F9002065
:1045A0000121205602F0A0F9642001F0CFFF002085
:1045B0000021205602F098F9642001F0C7FF002086
:1045C0000121205602F090F9C82001F0BFFF05B08C
:1045D000F0BD012D1DD12600002054363056290093
:1045E00002F036F900200021305602F07DF9022059
:1045F0002900305602F02CF902200021305602F03A
:1046000073F9552020560028C1DB002102F020F963
:10461000BDE75C221823A256284E53439A5DF31837
:104620005F68230000925F331978FAB20F230029E4
:1046300000D1083B00259B18DBB2019301F0C2FEBC
:10464000854219D218236B430099F2568A4210D141
:10465000FF22F3185B683A4093420AD3019A9342CF
:1046600007D80121280002F0F3F80021280002F009
:104670003BF90135EDB2E1E7250000205D35285614
:10468000012102F0E5F800200121285602F02CF962
:10469000012028560135002800DA78E7012102F0D0
:1046A000D7F800200121285602F01EF96FE7C04616
:1046B0000024F400C8030020E403002004BC02002E
:1046C000030010B568331B78002B04D1816BC26BDB
:1046D000406BFFF759F910BD10B50400FFF7F0FF6C
:1046E00023006A331B787F2B02D8A36A226E1A60DC
:1046F00010BD030010B568331B78002B02D1406B4E
:10470000FFF75EF910BD030010B56A331B787F2BED
:1047100002D8436A026E1A60FFF7EBFF10BD030078
:1047200010B5683319780200002903D1406BFFF7F8
:104730005BF910BD0300012919D155331B78002006
:104740007F2BF6D80731136CD46C40001C60536B80
:10475000146D1B68C0B21C4201D00130C0B2536C52
:10476000D46C0139C9B21C600029ECD1E1E75E3399
:10477000197800237F2911D8036D816D196003001A
:104780005F331978036C00290AD1FF311970836BEC
:10479000C06B1B780170D16C926D0A60D8B2C8E70B
:1047A000012149421980836BC06B1B8801809BB239
:1047B000F1E7836C426D1A60436C426D1A6070477A
:1047C000F7B504000E00151E57D0CBB201930300BD
:1047D00068331B780F0A002B0AD1013D4DD33900F5
:1047E000606BFFF701F90199606BFFF7FDF8F4E7E3
:1047F000012B19D11020013D3FD3310003000FB22E
:10480000A26C002F0EDAA76B3A60226CE76C013BBA
:104810001760626CE76C49009BB289B21760002B8D
:10482000EDD1E8E7E76BEFE7CBB29F420FD1020093
:104830005F321278436B002A07D16D001F70013D73
:104840001BD32000FFF7B5FFF9E71980F7E7013D1B
:1048500013D322005F321278636B002A0BD11F70D2
:104860002000FFF7A6FF6A46636B12791A702000DA
:10487000FFF79FFFEBE71E80F9E7F7BDF0B50500F6
:104880001E0085B00AAB00241C5F0BAB1B880068C0
:10489000A7B200970393476DB3B2280092B289B2D2
:1048A000B8472200039972432800FFF789FF05B03B
:1048B000F0BDF0B587B00CAC0025645F0DAD2D8860
:1048C0000595002B41D0002C3FD0002B05DA9BB280
:1048D000013159185B4209B21BB20C26855F8D422B
:1048E00033DD002C05DAA4B20132A218644212B200
:1048F00024B20E27C65FB446964226DDCE18B6B265
:104900000396013E36B20496002E1EDB1719BFB285
:104910007E1E36B2002E18DB002903DA6B460C210E
:104920005B5E0021002A01DA00223CB2049FBD42F6
:1049300001DC6B1A1BB2B44502DC6446A41A24B233
:10494000059D00940195FFF799FF07B0F0BDF0B504
:1049500087B01C000CAB00255D5F0DAB1B8807000A
:104960000E0002920593002C53D0002D51D0002C44
:1049700005DAA4B20136A619644236B224B20C2379
:10498000FA5EB24245DD002D07DA029BADB201337B
:10499000EB181BB26D4202932DB20E217B5E029981
:1049A0008B4236DD311989B28C46013909B2039147
:1049B00000292EDB0299481980B2411E09B20491E8
:1049C000002926DB002E02DA6446002624B2029972
:1049D000002902DA002105B2029103998A4201DC22
:1049E000941B24B2049A934202DC029A9D1A2DB2BF
:1049F0003B6838005B699847059B38000193009538
:104A00002300029A3100FFF739FF3B683800DB6A68
:104A1000984707B0F0BDF0B585B01C000AAB1B8805
:104A200006000D00171E039330DB0E22835EBB428F
:104A30002CDD002C2AD005DAA4B2013565196442B8
:104A40002DB224B20C22B35EAB421FDD291989B20C
:104A50004A1E12B2002A19DB002D01DA00250CB221
:104A6000934201DC5C1B24B2336830005B699847D9
:104A7000039B3000019301233A0000932900230097
:104A8000FFF7FCFE33683000DB6A984705B0F0BDE5
:104A9000F0B585B01C000AAB1B8806000F0015009E
:104AA000039300292FDB0C22835E8B422BDD002C2D
:104AB00029D005DAA4B20135651964422DB224B2B9
:104AC0000E22B35EAB421EDD291989B24A1E12B214
:104AD000002A18DB002D01DA00250CB2934201DC1C
:104AE0005C1B24B2336830005B699847039B30003D
:104AF0000193009401232A003900FFF7BFFE3368B9
:104B00003000DB6A984705B0F0BDF7B508AC2688E1
:104B1000002A23DB0E25445F94421FDD002B1DD0AD
:104B200005DA9BB2013159185B4209B21BB20C2560
:104B3000445F8C4212DDCF18BFB27D1E2DB2002D16
:104B40000CDB002901DA00213BB2AC4201DC631A24
:104B50001BB2012401960094FFF790FEF7BDF7B554
:104B600008AC2688002923DB0C25445F8C421FDD1E
:104B7000002B1DD005DA9BB201329A185B4212B2AB
:104B80001BB20E25445F944212DDD718BFB27D1EC2
:104B90002DB2002D0CDB002A01DA00223BB2AC4220
:104BA00001DCA31A1BB2009301960123FFF766FEF6
:104BB000F7BD030010B568331B78002B03D1406BA1
:104BC000FEF712FF10BD012B15D107334CB2826CDA
:104BD000002C0EDA846B2260026CC46C013B146002
:104BE000426CC46C4900DBB2C9B21460002BEDD139
:104BF000E8E7C46BEFE702005F321278436B002AEC
:104C000003D11970FFF7D5FDDCE789B21980F9E708
:104C100010B50400036B426E1A60FFF7CAFFE36A27
:104C2000626E1A6010BD70B5040003680D005B6908
:104C300098472300002D09D0703319782000FFF722
:104C4000E7FF23682000DB6A984770BD7133F4E703
:104C500070B504000E00036815005B699847236B6C
:104C6000626E31001A602000FFF7A3FFE36A626EF4
:104C70001A602000FFF753FD013DEDB20600FF2D45
:104C8000F7D123682000DB6A9847300070BD03002D
:104C900070B568331B7804000D00002B08D1090A99
:104CA000406BFEF7A1FEE9B2606BFEF79DFE70BDA2
:104CB000012B15D10F3329B2A26C00290EDAA16B9A
:104CC0000A60226CE16C013B1160626CE16C6D006A
:104CD000DBB21160ADB2002BEDD1E8E7E16BEFE79D
:104CE00002005F321278436B002A0AD10A0A1A7056
:104CF000FFF75FFD636BEDB21D702000FFF759FDFC
:104D0000D5E71980F9E773B504001D00002915DB0C
:104D10000C20235E8B4211DD002A0FDB0E20235E68
:104D200093420BDD01232068009389B2466D92B255
:104D30002000B04729002000FFF7A9FF73BDF0B5A0
:104D4000070089B007930EAB00201B5E04930FABE6
:104D500000201B5E02930C203B5E9C468B4215DDBF
:104D60000E203B5E0593934210DD04988BB2181819
:104D700080B2441E24B20694002C07DB029C95B23C
:104D80002E19B6B2741E24B2002C51DA09B0F0BD4F
:104D900001B2039100215B421BB20020824204DA7F
:104DA00032B202920022684200B28EB206998C455D
:104DB00003DC6146891B09B2039195B2059AA242B0
:104DC00002DC521B12B20292049C4443E418079B7B
:104DD00064001C193B6838005B69984769466B465C
:104DE00009893A689B890091526D310094463800D8
:104DF0002A006546A847049B5B000493029B013B85
:104E00001BB2029301330ED0039E002E08D0250062
:104E1000013E05D329883800FFF739FF0235F7E74F
:104E2000049BE418EAE73B683800DB6A9847ADE783
:104E30000029ADDB049B03930023AEE7F7B5040024
:104E40000D0017001E0000291CDB0C22835E8B4224
:104E500018DD002F16DB0E22835EBB4212DD0368D5
:104E60005B699847012320680093A9B2BAB2456DE7
:104E70002000A84720003100FFF709FF2368200029
:104E8000DB6A9847F7BDF7B5040027006A3701933E
:104E90000E001500FFF714FC3B787F2B02D8A36AA5
:104EA000226E1A6031000026236B626E20001A60A9
:104EB000FFF77FFEE36A626E1A60019BB34216DD64
:104EC000230068331B78022B0BD123005F331B7840
:104ED000002B06D029882000FFF7D9FE02350136C5
:104EE000EBE729782000FFF764FE0135F7E73B7810
:104EF0007F2B02D8636A226E1A602000FFF7F9FB4D
:104F0000F7BDF7B5040001930E001500FFF7D8FBBD
:104F100023006A3300931B787F2B02D8A36A226E8A
:104F20001A6031000026236B626E20001A60FFF7C2
:104F300040FEE36A626E1A60019BB34217DD2300F4
:104F400068331B78022B0CD123005F331B78002BB6
:104F500007D029882000FFF79AFEAF1C01363D00DC
:104F6000EAE7297820006F1CFFF723FEF6E7009B95
:104F70001B787F2B02D8636A226E1A602000FFF72D
:104F8000B8FBF7BD704773B50400EFF3108500233D
:104F9000019372B60721C36901AEDA170A40D2182D
:104FA000D2102430310000F081FCEB0700D462B64F
:104FB000E3690198202B03D0102B02D10023F05E6F
:104FC00076BD0020082BFBD13078F9E70368002973
:104FD00007D11A8B5207FCD4042219780A431A709D
:104FE00070471A8B1207FCD419780822F6E7036879
:104FF000002907D11A8BD206FCD4102219780A4353
:105000001A7070471A8B9206FCD419782022F6E7A2
:10501000F8B5040006A8077807A80678FA208000EB
:10502000A0600C48A37401230830002520602000F4
:105030005B42A361631C6560E77426756575E56175
:10504000217462742430DD7700F0D0FBA564E56440
:105050002000F8BDD8BA020070B50400037C03201C
:105060001C4E083331689B005A58824310000122BD
:1050700002435A50217C3000FFF7A8FF217C30000A
:10508000FFF7B5FF144DA169280000F0ADFA134AEF
:10509000A169280000F03CFB227C30681300083333
:1050A0009B001B58A1699B079B0F012B0DD1531E21
:1050B0009A412B32280000F051FA2800E269A169D8
:1050C00000F076FA0123637570BD531E9A412932B0
:1050D000F0E7C0468C06002090060020995400009E
:1050E00070B5437D0400012B01D0FFF7B5FFEFF34E
:1050F000108572B62000243000F086FBEB0700D448
:1051000062B670BD70B5437D04000D00012B01D067
:10511000FFF7A2FF114B217C1A68938A002914D152
:10512000DB05DB0FF9D0002911D1138BDB05FCD493
:105130000C3189008D50237C918A002B0BD10133D7
:10514000FF330B430120938270BD9B05E9E7138B6E
:105150009B05FCD4ECE780239B00F2E78C06002043
:1051600010B5FFF7CFFF10BDF0B5437D87B0040049
:105170000F001600012B01D0FFF76EFFEFF3108335
:1051800001221A40039272B62500243532003900FC
:10519000280000F045FB671C0590FE7FF6B2002E4C
:1051A00021D1280000F0A6FB00281CD00123FB77AA
:1051B000A36928001F0000F098FB0490247C0D4B8D
:1051C0000C341B68A40028001C1900F093FB80B26B
:1051D000009039002300049A074800F021FA3100BA
:1051E000280000F091FB039B002B00D162B60598CC
:1051F00007B0F0BD8C0600209006002010B5FFF728
:10520000B3FF10BD70B50400037C03201A4E0833B1
:1052100031689B005A5882435A50217C3000FFF776
:10522000D5FE217C3000FFF7E2FE144DA169280075
:1052300000F0E8F9124AA169280000F069FA227C1E
:105240003068130008339B001B58A1699B079B0F14
:10525000012B0DD1531E9A412B32280000F07EF90C
:105260002800E269A16900F0A3F90223637570BD0B
:10527000531E9A412932F0E78C0600209006002048
:1052800099540000F0B5437D87B00400022B01D093
:10529000FFF7B8FFEFF3108301221A40039272B6B2
:1052A00025002435280000F025FB671C0490FB7FB7
:1052B000002B22D1280000F01DFB061E1DD101236A
:1052C000FB77A369104A1F00237C12680C339B00F4
:1052D000D3182800059300F008FB0400280000F014
:1052E00093FA80B2009039002300059A074800F035
:1052F00097F93100280000F007FB039B002B00D139
:1053000062B6049807B0F0BD8C060020900600201D
:10531000F0B5437D87B004000F001600022B01D0CA
:10532000FFF770FFEFF3108301221A40039272B669
:105330002500243539003200280000F092FA671C5D
:105340000590FB7F002B22D1280000F0D3FA061E27
:105350001DD10123FB77A369104A1F00237C12682B
:105360000C339B00D3182800049300F0BEFA04000D
:10537000280000F049FA80B2009039002300049A16
:10538000074800F04DF93100280000F0BDFA039BFA
:10539000002B00D162B6059807B0F0BD8C06002046
:1053A0009006002073B5072106000024C36901ADF3
:1053B000DA170A40D218D21029000194FFF7A8FF8B
:1053C000F3690198202B03D0102B02D10023E85E53
:1053D00076BD2000082BFBD12878F9E7F0B5050051
:1053E000437D2435040085B02800012B27D100F02F
:1053F00081FA002820D0A3692800039300F075FAF1
:10540000267C234B0C361B680700B60028009E192B
:1054100000F070FA80B20090039933003A001D4802
:1054200000F0FEF80021280000F06EFAA36C002BBB
:1054300000D0984705B0F0BD631CD877F6E700F0C0
:1054400059FA00281FD1A369267C0393104B0C3610
:105450001B68B60028009E1900F047FA07002800D4
:1054600000F0D2F980B2039900903B003200094865
:1054700000F0D6F8280000F0C7F90100280000F07D
:1054800043FAE36CD3E70022631CDA77F9E7C046FE
:105490008C06002090060020044B10B59A698242C9
:1054A00002D11800FFF79AFF10BDC0463C0600204D
:1054B000094B0A4A13B51A6003220223084C0192D1
:1054C0000093002113332000FFF7A2FD054A06498F
:1054D000200003F012FB13BD8C0600200050004298
:1054E0003C06002000000020ED54000010B5040030
:1054F000034B08330360243000F05EF9200010BD38
:10550000D8BA0200704710B5040001F09FFA2000DD
:1055100010BD000070B50025042604000E4B456048
:105520000833036029003200083005F047FC2000F2
:10553000290032000C3005F041FC20000C3632000E
:105540002900103005F03AFC2000320029002030FC
:1055500005F034FC200070BDFCBA020070B50F26C7
:105560000F4D314028780C0001003F20B1430D4B16
:1055700021432970596C10400B4A00020A40024333
:105580005A645A6C09499204920E06D05A6C114022
:10559000802212040A435A6470BD5A6C0A40FAE72A
:1055A0003F48004100480041FFC0FFFFFFFF3FFFB1
:1055B000013110B509010B4C102A05D0202A09D061
:1055C0000A5A22400A5210BD0A5A14408022520040
:1055D0002243F7E70B5A1C4080239B0023430B52C6
:1055E000F1E7C046FFFCFFFF8023013109010A5AA1
:1055F0005B0113430B5280230A5ADB0013430B5207
:1056000070470000013109010B5A044A13400B5244
:1056100080230A5A1B0113430B527047FFEFFFFF11
:10562000F0B585B002930AAB1B88944601934B1CDE
:1056300003931B011A5A04000F000120D2075CD407
:105640000F253E002E492E400A78AA4332430A70A5
:1056500006211A5B8A431A531A5B12318A431A5382
:105660001B5B16399B059B0F834203D00231022B33
:1056700000D001007B1C1E01335B0198DB04DB0CB6
:1056800033533B01E518039363466B61029BAB61A7
:105690000023EB6103F0CCFA80B26882335B5B05D8
:1056A00003D56B69019AD3186B617B1C1B011B5BD3
:1056B0001B0505D53B01E618B369019AD318B36100
:1056C0007B1C1A010123115B0E4819431153027808
:1056D0000D491A43027002220478144304700B48E7
:1056E00004782243027000204A6C9204920E824297
:1056F00003D1BB400A6913430B6105B0F0BDC0463E
:105700003F4800414D4800410048004140480041A9
:10571000023189000A5070470F2170B5164B174AA5
:105720001C8C13782407240F8B432343137001230D
:10573000621C1201115A124D994311522A78060027
:10574000D2070AD52A7813432B70A31C9B00C318D9
:105750005B68002B01D0200098472B789B070AD567
:1057600002232A7813432B70A31C9B009B59002B08
:1057700001D02000984770BD004800413F480041DB
:105780004E48004110B50248FFF7C6FF10BDC046A5
:105790009006002010B5054C2000FFF7BBFE044A20
:1057A0000449200003F0A9F910BDC046900600206E
:1057B0000000002005550000704710B5040001F0FE
:1057C00045F9200010BD10B5C1680400406806F01E
:1057D00003F8E1686060A06805F0FEFF0023A060A8
:1057E000236223616361A361E36110BD054B10B5C2
:1057F00008330360802304009B00C360FFF7E3FFCE
:10580000200010BD0CBB0200036A04339B001A5831
:10581000036A06339B001B58C068D31AC01A70472E
:10582000F8B504000E001700FFF7EEFF0500B842C0
:1058300000D93D00002D12D0236A226A9B00043259
:10584000E318920012595868310080182A0005F0B8
:1058500099FA236A9B00E41823695B1923612800E5
:10586000F8BD70B50400236A080004339B001D597D
:10587000236A06339B001B59ED1A954200D9150087
:10588000002D11D0236A226A9B000632E318920091
:105890001259596889182A0005F074FA236A9B0086
:1058A000E418A3695B19A361280070BD0300080018
:1058B000196A70B504318900CC58196A063189001B
:1058C000C958641A944200D91400002C0BD01D6AE8
:1058D0001A6AAD0006329200D6585B195968220048
:1058E000891905F04FFA200070BD036A9B00C018AB
:1058F00040687047036A04339B001A58036A0633F2
:105900009B001858101A7047036A002B0BD1013303
:1059100000220362036A04339B001950036A0633B2
:105920009B001A5070470023F2E700000221084B49
:1059300000221961190030310A7006495A719A71B2
:105940009A721A73DA63996341331A707047C046CA
:10595000C006002024BB020010B501000148FEF77C
:1059600043F810BDE403002010B5FF210148FEF705
:105970003BF810BDE403002010B50121007900F0D0
:10598000B3FF054B1A78002A04D0002203481A708E
:10599000FEF716F810BDC04624070020E4030020DF
:1059A00010B5084B04001A78002A06D101321A708B
:1059B000054B064806CBFDF7E7FF2079002100F0F4
:1059C00093FF10BD2407002028070020E4030020D7
:1059D00010B583790400002B0DD023895A1C228135
:1059E000054A934202D8FFF7BFFFF6E72000FFF712
:1059F000C3FF0023A37110BD0102000070B50C00AD
:105A000000F06EFD0500FFF7AFFFFF2806D000F0A5
:105A100067FD401BA042F6D3002070BD0120FCE7CB
:105A2000F8B505000E001700FFF7D2FF2800FFF7BA
:105A3000B7FF962128004900FFF7E0FF40203043E0
:105A4000FFF78AFF18243800E040083CC0B2FFF797
:105A500083FF23000833F6D19520002E03D06A304F
:105A6000082E00D17838FFF777FF0024FFF77CFF7E
:105A700043B2E872002B04DAFF2C02D00134E4B206
:105A8000F4E7F8BD70B5040000F02AFD9625060085
:105A90006D00FFF769FF0300E072FF280BD100F0F3
:105AA0001FFD801BA842F4D90F2320006371FFF76C
:105AB00063FF002070BD0120FE2BFBD00D23F4E717
:105AC000F8B516001D009A18802304009B009A4226
:105AD00016DC8379002B05D003688B4202D1038941
:105AE000B3421AD9237B2160032B00D049020A005C
:105AF00020001121FFF794FF071E06D003236371D6
:105B00002000FFF739FF002028E02000FFF7BAFF50
:105B10000028F5D001232781A3712389B34208D33C
:105B2000069E7719B7420AD0FFF71EFF3070013684
:105B3000F8E7FFF719FF238901332381EDE7238974
:105B4000ED18A37AADB22581002B03D0044B0120C0
:105B50009D4203D92000FFF73BFF0120F8BDC0465E
:105B6000FF010000802307B59B0000920022FFF791
:105B7000A7FF0EBD70B5050008001400FFF7ECFE8E
:105B800080239B00E61820780134FFF7E5FEB4423D
:105B9000F9D1FF20FFF7E0FEFF20FFF7DDFEFFF762
:105BA000E3FE1F23E87203400120052B05D01123DB
:105BB00028006B71FFF7E0FE002070BDF8B51D00F6
:105BC000040016001223002924D0037B032B00D0ED
:105BD00049020A0020001821FFF722FF0423071EB4
:105BE00018D13200FE212000FFF7C4FF002812D098
:105BF000002D19D0962120008900FFF7FFFE152304
:105C0000002807D03A000D212000FFF709FF0028E7
:105C100006D0142363712000FFF7AEFE002007E0DA
:105C2000FFF7A2FE0028F4D12000FFF7A5FE012017
:105C3000F8BD70B50500FFF7B3FEFFF795FE040051
:105C40002800FF3CFFF798FE601E8441E0B270BD63
:105C5000034B044A1A6000225A711A717047C046F9
:105C60002807002000093D00020010B50C32040096
:105C70000121406A00F096FA00280ED0236A002B1A
:105C800006D1E368227A236280235B4213432372A6
:105C900020230120227A1343237210BD10B5040083
:105CA000406900F0E5F9002803D0207E014B400157
:105CB000C01810BD3807002070B5437A04000E00EC
:105CC000002B01D1002070BDC2698A42FAD3022B99
:105CD00002D126610120F6E7002901D1E160F8E751
:105CE000436A01691A7C751E09324B1ED340D540A8
:105CF000AB4201D800290DD1236AE360002DE8D022
:105D00002200E1680C32606A00F0D8F9013D0028F9
:105D1000F4D1D7E7ED1AF1E770B5437A05000E002C
:105D2000002B01D1002070BD037A7F2B2DD90121DA
:105D3000FFF7B4FF041EF5D06B7A012B07D8EB698F
:105D40001A0A037742771A0C1B0E8277C3772B6AE5
:105D50009BB2A3761B0AE3762B6A1B0C23751B0AE6
:105D600063750F4B1B68002B0BD0210020001631F0
:105D700018309847637E227E1B021343A3741B0ACC
:105D8000E3747F222B7A13402B72002E03D1102252
:105D90002B7A93432B72300000F044F9C3E7C046DE
:105DA00030070020F8B5437A0500012B01D0002010
:105DB000F8BD037A9A07FAD55B0712D4174B186817
:105DC000FFF737FF0028F2D12A7A202714003C4041
:105DD00010D001002800FFF79FFF2B7ABB432B72E6
:105DE000E5E7C16903698B42E8D0FFF765FF00284A
:105DF000E4D1DCE70A4B1B68002B03D0200000F045
:105E0000F9F8D4E7102328691343C0052B72C30D9A
:105E100080208000C01A80B2CAE7C0463C0900203A
:105E200038090020F0B5437A87B004000F000392D0
:105E3000012B2ED1037A02939B072AD5029B5B0785
:105E40001FD4039B0093009A2369002A00D199E094
:105E5000606A5D0A0279DB05013A1540DB0DEDB29F
:105E60000193002D1AD1002B18D1E16800294BD1E4
:105E7000236A002B11D12000FFF7F6FE00280DD178
:105E800007E0C16903699942DBD0FFF715FF0028DD
:105E9000D7D101230020636089E0E3608023019A69
:105EA0009B009B1A6A461688009A9BB29A4200D9B8
:105EB0001E1C626AE368117C023B8B405269B6B2D9
:105EC0009B185D1980239B009E4232D13D4B1A687E
:105ED000AA4202D1012252421A60029B3A481A0990
:105EE00001232900934300683A00FFF767FE00286A
:105EF000CFD080239B00FF18009B9B1B9BB200937D
:105F000023699E1926619EE705AA00F0D7F80028AC
:105F10004DD0636A059A0133DB7F103B591E8B41DC
:105F20002A495B420B402A495B189A42A3D2E2609D
:105F3000B4E7019B002B1CD12369E269934218D37B
:105F4000012000F06FF80028A3D01E4B214A1D60ED
:105F5000012311780B431370019A1F4B3800D3189B
:105F600019009A198A420BD0057801300D70013161
:105F7000F8E70121280000F07BF80028ECD188E741
:105F8000D31AB8E7E169227A994205D2E361802306
:105F90005B421343237206E0104B1B68002B02D0B8
:105FA000039B002BF3D1237A1B0702D4039807B07D
:105FB000F0BD01212000FFF7AFFE002800D168E707
:105FC000F4E7C046200000203C0900200000FF0F3D
:105FD000F8FF0000340700203807002030070020B9
:105FE00007B56B46D971073301221900FFF71AFF75
:105FF0000EBD000010B5084C0300216801200029E7
:1060000009D00648064A0068FFF7D8FD002802D0EC
:1060100000230120236010BD380900203C09002026
:106020003807002070B50E4D04002B78002B01D1ED
:1060300001200AE003000B490B480C4A096800687C
:10604000FFF7BCFD002801D1002070BD002CEFD06F
:106050002000FFF7CFFF0028F6D000232B70E7E7E2
:1060600034070020200000203C09002038070020D1
:1060700070B50E4E050033680C0083420FD001202E
:10608000FFF7D0FF002801D1002070BD084B094A5E
:1060900029001868FFF766FD0028F5D03560064B2B
:1060A00001201A7814431C70EFE7C046200000203E
:1060B0003C0900203807002034070020C36870B571
:1060C00001330C0015008B4201D2002070BD461C2C
:1060D000F27FC369C809102A00D1080AC0180D4B05
:1060E0001B68834209D1F27F0B4B102A0BD1E4B21B
:1060F00064001B5B2B600120E8E70021FFF7B8FF7D
:106100000028F0D1E1E77F221440A4001B591B01B5
:106110001B09EFE72000002038070020F7B5060034
:106120000C000192012901D80020FEBDC368013393
:106130008B42F9D3471CFA7FC569CB09102A00D1DD
:106140000B0AED18134B1B689D4216D1FA7F124BB8
:10615000102A19D16A46E4B2928864001A530123C6
:106160000E4918000A781A430A70327E9A42DCD926
:10617000B26855190A4A1560D7E700212800FFF7D1
:1061800077FF0028E2D1CFE77F221440019AA400D4
:106190001A51E4E7200000203807002034070020CF
:1061A00038090020F0B5146887B00600029101920A
:1061B000002C2AD000270134F36825000133039313
:1061C00000230093F368009A93421AD9039B9D42DF
:1061D00001D902252C0005AA29003000FFF76EFF27
:1061E00000280ED0059A6B1C002A15D102991A1BA3
:1061F0008A4212D11B4A29003000FFF78FFF002886
:1062000010D10027380007B0F0BD029B0468013BA5
:106210005A425341DFB2CFE71C00009A1D00013201
:106220000092CFE7AC4208D26B1E2A001900300062
:106230000093FFF773FF009DE1E7019B19680029B8
:1062400005D1019B1C60002F08D10137DAE722003D
:106250003000FFF763FF0028F3D1D2E70134346048
:10626000D0E7C046FFFFFF0F4B1E9941002310B53A
:1062700020311A00FEF745FE10BD0000F8B50500FC
:10628000002900D1154902222800FEF743F92B000E
:1062900069331B787F2B08D9002328001A000121BD
:1062A000FEF72FFE962000F051F90D4C21780029C1
:1062B00010D06678A71C7F24344023003A002800C1
:1062C00076B2FEF71EFE3C19002EEFDA962000F0A3
:1062D0003DF9EBE7034BEB60F8BDC04600366E01BD
:1062E00034BB0200F000400107B56B46DA1D032302
:1062F00019408176022908D099420FD045330129EF
:1063000004D128231370064B02E088231370054B39
:10631000C36036210123FEF7B6FD07BDE823F1E790
:106320004001F000F0004001F7B504000F00160036
:10633000013B08AACB1815889BB22A210193FEF7CE
:1063400067FC39002000FEF7A2FC013D0199200006
:10635000FEF79DFC751920002B21FEF759FCADB20C
:1063600031002000FEF793FC29002000FEF78FFC8F
:106370002C212000FEF74CFCF7BD000013B50400F3
:10638000A020019300920B004200F0212000FEF7B4
:10639000ABF8024B20000833236016BDA4BB0200FB
:1063A00037B513006A460D0004000732103313702E
:1063B000D9210123FEF767FD290000222000FEF706
:1063C00047FC3EBD2420704710B5024800F085FF11
:1063D00010BDC0464009002013B51249124800F014
:1063E00053FC1249124800F04FFC1249124800F0C9
:1063F0004BFC1249124800F047FC1249124800F0C9
:1064000043FC124C1249200000F03EFC0123019392
:10641000023300930D220B3321000E4800F0F2FEF0
:1064200013BDC046000800427C0B0020000C004257
:10643000800B002000100042840B0020001400425A
:10644000880B0020001800428C0B0020900B0020CD
:10645000001C004240090020FEE70000034B10B57D
:106460001B68002B00D0984710BDC046940B00203D
:1064700070B50F490F4CA14204D100F08FF800F025
:10648000C1FAFEE70C4D00238D42F6D0CA18E81879
:10649000A24205D3094B8242EFD00949002204E011
:1064A000006804331060F1E704C38B42FCD3E4E7D7
:1064B00000000020400200208CC3020040020020A7
:1064C000D011002010B500F066F8002801D100F0CE
:1064D00057F810BD014B18607047C046940B002060
:1064E000014B18687047C046980B0020F7B5134859
:1064F000012284461249134C8E68636805689B0E1E
:106500001340019288686268019F920E3A40674684
:106510003F6893420ED1BD420CD186420AD35B192B
:10652000FA254868AD00861B07486B437043000D91
:10653000C018FEBD3D0013000600E3E7980B0020E5
:1065400010E000E000ED00E05555000070B5041EBD
:1065500010D0FFF7CBFF050000F01CF8FFF7C6FFD7
:10656000054B401B9842F7D9FA23013C9B00ED18DC
:10657000002CF3D170BDC046E70300007047000057
:1065800010B5034A13680133136000F041FB10BDDE
:10659000980B002070470020704700001E2270B545
:1065A00046484749436893431C3A134343600823D2
:1065B0008C6923438B61434C434B9C829C8A1443DC
:1065C0009C82DC681442FCD00124404A1470157887
:1065D000254203D055786DB2002DF8DB012494607C
:1065E000547864B2002CFBDB394C5460547864B2AC
:1065F000002CFBDB8224E4015480547864B2002C2C
:10660000FBDB02249C840E34DD682542FCD0314C37
:10661000DC621024DD682542FCD09D8C2E4C2C437E
:106620009C841024DD682542FCD002249D8C8026A9
:106630002C439C844024DD683542FCD0DD68254233
:10664000F9D01024DD682542FCD0002494605478F1
:1066500064B2002CFBDB214C5460547864B2002CF3
:10666000FBDB1C6A1E4D2C4080251C621C6AAC435F
:106670001C62032393601B4B536053785BB2002B67
:10668000FBDB0023FF240B72174A4B728B72CB7219
:10669000164B1A60164B174A1B6811689A065B0165
:1066A000C90E2340520F12020B431343124A1385A3
:1066B000802342681343436070BDC04600400041E0
:1066C000000400400C06000000080040000C0040E0
:1066D00001050100B905FF7D040A00000007030061
:1066E000FFFCFFFF03060100006CDC022400002019
:1066F000246080002060800000400042FA21314B7D
:1067000010B51868890002F009FA2F4B0138984239
:1067100056D82E492E4A4860C020136A00061B0234
:106720001B0A03431362002407238C600B60802143
:10673000136A09061B021B0A0B431362FC22254B3A
:10674000196A0A431A62FC22196A92010A431A6200
:10675000A022196AD2020A431A62200000210134E1
:1067600000F076F80F2CF8D11B4B1C005A7852B26F
:10677000002AFBDB194A5A80194B1A00597EC909B5
:106780000129FBD0E421C90099803F21D970537EB3
:10679000DB09012BFBD0C02300205B01136190704B
:1067A00000F024F863785BB2002BFBDB0D4B0E4A44
:1067B0006380D379DB09012BFBD04123537010BDDB
:1067C000FEE7C04624000020FFFFFF0010E000E0CD
:1067D00000ED00E000040040000C00401E400000FE
:1067E000004000422140000000480042164A00B527
:1067F0001300517EC9090129FBD00138042816D89D
:106800001969124A0A400F211A615A788A4302F024
:106810007BF90308060B0300110001220A435A709A
:1068200000BD11000322F9E711000222F6E7F02370
:1068300011691B050B430F21136153788B4319001A
:1068400002230B435370EBE700400042FFFFFFF0D1
:10685000182330B51D00040045430820204A55196F
:106860002856013014D0032912D808006343D156AA
:10687000D31802F049F902280E1B5868CB010221F7
:10688000184A9B181A1840321170012282405A602F
:1068900030BD5868CB010621124A9B181A184032A5
:1068A0001170012282405A609A61F1E75868CB0169
:1068B00006210C4A9B181A1840321170012282409E
:1068C0005A605A61E4E75868CB010221054A9B18D7
:1068D0001A1840321170012282409A60D8E7C046EF
:1068E00004BC0200004400411823F0B508245843BA
:1068F000114A13181C5701341BD0012635005F685C
:106900008356BD400D4ADB019A18906805420BD1B1
:106910000C00601E8441D219403210783440033696
:10692000A400B04320431070044A9B18002901D1F1
:106930005D61F0BD9D61FCE704BC020000440041C4
:1069400018224243F8B52C4E0300B218127A52B204
:10695000140001320ED0481C00240C280AD802F082
:10696000D3F8071F1F1F1F1F1F1F1F0B0B0B0B0031
:10697000012464422000F8BD092905D10021180036
:10698000FFF766FF0024F5E70A2901D10839F6E789
:1069900000240B29EED10A391800FFF759FFE9E767
:1069A00018225343F218556801202C00F356134A5D
:1069B000DB016E089B18C9B204409E19002C0DD053
:1069C0000F2430363278090122401143C9B25B19D5
:1069D000317040331A7810431870D3E732000F2714
:1069E000303216785B19BE433143117040331A7848
:1069F00010431870BEE7C04604BC020000440041CA
:106A0000FEE7704710B5FFF779FE04F041F9FFF794
:106A1000F8FF0120FFF79AFD084C200001F0CAFAA8
:106A2000200001F075FBFCF733FCFCF7F5FC044B90
:106A3000002BFAD000E000BFF7E7C046040C0020AE
:106A40000000000010B504F077F910BD10B504F097
:106A50007DF910BDF7B506000D000C008B180193F1
:106A6000019B671B9C4207D0336821781B6830006C
:106A7000984701340028F3D13800FEBD70B50400FA
:106A800008000D0004F0ECFE2368020029005B689A
:106A90002000984770BD10B50B1E02D0FFF7EEFF27
:106AA0000300180010BD10B503688A685B680968A8
:106AB000984710BD10B5FFF7EEFF10BD10B5036885
:106AC0001B68984710BD000010B50249FFF7D6FFBC
:106AD00010BDC04664BF020070B50500FFF7E3FFBC
:106AE00004002800FFF7F0FF201870BD70B5040007
:106AF000FFF7D1FF05002000FFF7E6FF401970BD4A
:106B0000F0B58BB06B461500002205330600DA772E
:106B10000800012D00D80A2509AC290002F084F8EC
:106B2000CAB2130037330700DBB2092902D81300B9
:106B30003033DBB2013C2370002FEED12100300056
:106B4000FFF7A9FF0BB0F0BDF8B506000C00151E4D
:106B500004D10368C9B21B689847F8BD0A2A0CD152
:106B600000290BDA2D21FFF7A9FF614207002A0057
:106B70003000FFF7C5FF3818EFE7D2B22100300030
:106B8000FFF7BEFFE9E710B5FFF7DEFF10BD70B5F8
:106B90000400FFF7D9FF05002000FFF795FF40191B
:106BA00070BD10B5002A04D10368C9B21B689847AC
:106BB00010BDD2B2FFF7A4FFFAE710B5FFF7F1FF5F
:106BC00010BD70B50400FFF7ECFF05002000FFF7D3
:106BD0007BFF401970BD70B50500FFF7E2FF0400B0
:106BE0002800FFF771FF201870BD000010B50400E9
:106BF000FFF7C4FC014B1C6010BDC04628000020FC
:106C00000122024B52421A607047C0462800002001
:106C1000164A10B51368591C26D0013B1360002B8F
:106C200022D172B6124B134A0433934213D9124A3B
:106C300001211000147D0C42FCD02021148BFF3167
:106C40009B085B0021431183D3610C4B138001230C
:106C5000027D1A42FCD0BFF34F8F094B094ADA601C
:106C6000BFF34F8FC046FDE710BDC046280000208F
:106C700000200000030200000040004102A5FFFFC9
:106C800000ED00E00400FA05016070479446F0B59D
:106C90009E1E721E96416246056892072F68360650
:106CA0003A4332432A60072505AC24780068A401E2
:106CB0002940214342680024022B00D05C03114389
:106CC00021434160F0BD30B5C0250368AD031C68A9
:106CD00012052A402243C0240904A4022140114382
:106CE000196003685A6814435C6030BD0123026870
:106CF00011680B43136003681A68D207FCD4DA6981
:106D0000D207F9D470470223026811680B4313605D
:106D10000268D3699B07FCD4704703681A7ED207C8
:106D200002D41A7E9207FCD57047002203685A836A
:106D300070470368187E4007C00F70470368187ECD
:106D4000C0097047802302685B42117E0B431376B3
:106D500070470368588B8007C00F70470223026892
:106D6000518B0B43538370470368187EC007C00FD5
:106D700070470368188DC0B2704703681A7ED20747
:106D8000FCD589B2012019857047012203689A75E4
:106D90007047012203681A757047000070B501261C
:106DA00004684B0833403140256809075B070B43F3
:106DB0002B43236004685100034801F0AFFE013803
:106DC000C0B2207370BDC046006CDC0201230268B3
:106DD00011680B43136003681A68D207FCD4DA69A0
:106DE000D207F9D470470223026811680B4313607D
:106DF0000268D3699B07FCD470470368DA6992077D
:106E0000FCD402211A688A431A6070470268936AA8
:106E10005B0A5B021943916203681A7E5207FCD534
:106E2000986AC0B2704780230268DB02116851681B
:106E30000B43536070470000036803491A685A689F
:106E40000A405A607047C046FFFFFBFF032230B57F
:106E5000036811401C68074D5A6809042A40E4067B
:106E60001143640F5960052C03D10268D3695B0795
:106E7000FCD430BDFFFFFCFF0368283319700368A2
:106E800000201A7E520704D5588B01234007C00FFB
:106E90005840704703681868C006400F04384342E2
:106EA0005841C0B270470368187E4007C00F704752
:106EB0000368187EC007C00F70470368588BC00670
:106EC000C00F70470368187E8007C00F70470368C3
:106ED000588B0007C00F704703681A68D206520F1C
:106EE000052A05D11A7E920702D41A7ED207F9D557
:106EF00028331878C0B270470368214A30B59342EE
:106F00002FD0204A93422FD01F4A93422FD01F4A9E
:106F100093422FD01E4A93422FD01E4A93421FD134
:106F20000E2319220121032599401B48C02401602A
:106F300099082B40AB40FC359D4089000918A400FE
:106F40000859A843C0259D402B0003430B518023C3
:106F5000DB011A43114B5A805A7852B2002AFBDBEC
:106F600030BD09231422DDE70A231522DAE70B23BB
:106F70001622D7E70C231722D4E70D231822D1E7D6
:106F800000080042000C00420010004200140042C1
:106F900000180042001C004200E100E0000C00402C
:106FA000F8B504000F0016001D00FFF7A5FF200034
:106FB000FFF79CFE1C21BB000B4071072268090CE7
:106FC0000B431360842322689375012F1AD110217B
:106FD000012E00D008390C4B69431868C00001F03D
:106FE0009DFD0722216802408B895203DB04DB0CE4
:106FF00013438B81226803049089DB0C400B400310
:1070000018439081F8BDC04624000020F7B5060063
:10701000019308AB1F780D001400FFF7D7FE300076
:10702000FFF76AFFC022240592031440BA070C2719
:1070300017433C43C0270722BF022D0433683D405D
:1070400025431D60019B316813401A0080239B0279
:1070500013434B60F7BD01207047000010B5036873
:10706000014A1B6A984710BD130400000300FC335B
:10707000D9699A69914203D0DB69C018007D7047D5
:1070800001204042FBE710B504000069FFF72EFE27
:1070900022000023FC329361D36186229200A4185F
:1070A0006360A36010BDF020014030394842484180
:1070B0007047F0231B011940802306209B00994252
:1070C0000AD00133FF330130994205D080230238C2
:1070D0005B00994200D0002070470F200140002043
:1070E000012903D00239481E8141481C7047000025
:1070F0008923F0B5182685B002919B000400C05C7E
:10710000330008214343324D1700EB185956FFF75F
:1071100017FC304B0821E05C33004343EB18595611
:10712000FFF70EFC2C4BE25C0393022A09D11133CA
:10713000E05CFF2805D008214643AE197156FFF7E1
:10714000FFFB8A26B600A05DFF2819D00121FFF7BA
:107150007FFB1822A35D21495A43AB56AD18DB01D2
:1071600058188B21890060501D4901225B188C2121
:107170008900635069688A408D21890062501A60D5
:107180000122029B11002069FFF70AFF390020004D
:10719000FFF78FFF390005002000FFF79EFF390041
:1071A00006002000FFF77FFF3300009029002069D0
:1071B0000122FFF76BFD0B4B2069E25C039BE15C56
:1071C000FFF781FD2069FFF79EFD05B0F0BDC046C9
:1071D00004BC020025020000270200001844004100
:1071E0001444004126020000802210B50400520021
:1071F000002103F0E3FD23000022FC335A6020004D
:107200009A6010BDF7B51D0008AB1B780400009311
:1072100009AB1B781600019300234360FA239B00FF
:107220008360114B0F00083303601430FFF7DCFF5D
:1072300020001D30FF30FFF7D7FF89236A469B00EF
:107240002761E654094B1278E554094B2000E254BB
:107250006A46084B1279E2548A22293BFF3B92008E
:10726000A3541032A354FEBD68BF020025020000E3
:1072700026020000270200000300FC3358689B68C8
:10728000C01A01D50130FF30704710B5040020004E
:107290001D30FF30FFF7F0FF0028F8D12069FFF71D
:1072A0003CFD10BD10B51430FFF7E6FF10BD030024
:1072B000FC3359689A68914204DB5A689868801ACE
:1072C000FF30704798685B68C01A0138F9E710B55D
:1072D0001D30FF30FFF7EBFF10BD10B50400006953
:1072E000FFF737FD002805D02069FFF742FD206930
:1072F000FFF734FD2069FFF71CFD002820D020692E
:10730000FFF737FD2200FC329369D1690133DBB20C
:107310008B4203D091696118087593618A239B00A1
:10732000E35CFF2B0CD020001430FFF7C0FF0928CE
:1073300006DC8B238D229B009200E358A2581A6032
:107340002069FFF711FD00281AD020001D30FF3002
:10735000FFF792FF002822D086239B00E31899684C
:107360005A68914218D08E219A684900A218515C3F
:107370009A680132D2B29A60C9B22069FFF7FDFC67
:107380002069FFF7DBFC002805D02069FFF7DAFC55
:107390002069FFF7CAFC10BD01214942ECE72069D2
:1073A000FFF7F7FCECE7000070B5040000690D0082
:1073B000FFF7DAFC00283ED1FF2686239B00E31866
:1073C0005A689968013232408A4223D1EFF3108320
:1073D000DB0710D41E4B5B68DB05DB0DEDD0103BEB
:1073E0005BB2002B10DA0F221340083B9B08194AAE
:1073F0009B009B181B682069FFF7B6FC0028DCD0B7
:107400002000FFF76AFFD8E79B08C033124A9B00B1
:107410009B58F0E75A68013216409A68964205D0A8
:107420008E215A684900A21855545E602069FFF702
:10743000ACFC012070BD20001D30FF30FFF71CFFA9
:107440000028B9D129002069FFF797FCF1E7C04671
:1074500000ED00E01CED00E000E100E0030070B58D
:10746000FC33D9699A69040091421AD0DA6982180A
:10747000157DDA690132D2B2DA618A239B00E35CBE
:10748000FF2B0CD020001430FFF711FF0A2806DD77
:107490008C238D229B009200E358A2581A6028008A
:1074A00070BD01256D42E8E710B5040000680028B2
:1074B00001D003F04BFC200010BD10B504000068A3
:1074C000002801D003F042FC00232360A360636026
:1074D00010BD70B504000D000068013104F07CF9A6
:1074E000031E01D0012028C470BD036810B504003C
:1074F000002B04D043688B4201D3012010BD200033
:10750000FFF7E7FF0028F9D0A368002BF5D1226828
:107510001370F2E770B50E00110004001500FFF7BC
:10752000E4FF002804D12000FFF7C7FF200070BD52
:10753000A5603100206804F08BF9F7E7002370B5EF
:1075400004000D00036043608360994207D0080087
:1075500004F086F9290002002000FFF7DBFF20007D
:1075600070BD70B5050008000C0004F079F9210029
:1075700002002800FFF7CEFF70BD10B50023040005
:107580008AB023606360A360080001A901F0B1FA2A
:10759000200001A9FFF7E5FF20000AB010BD70B57B
:1075A0000D00002A06D0002904D084689C4202D82D
:1075B00000230B7070BD013AE41A944200D9140004
:1075C00001682200C918280004F062F900232B5535
:1075D000F0E710B50468002C07D02078002804D00C
:1075E00004F000FA20700134F7E710BD0020704766
:1075F00070B50F26CB1D013902003240D5B22C00E8
:1076000000093034092A00DD07341C70013B8B422D
:10761000F2D170BD10B50C000B4B1868FFF7E8FFF6
:1076200021000A4B08311868FFF7E2FF2100084BE0
:1076300010311868FFF7DCFF2100064B183118687D
:10764000FFF7D6FF202010BD0CA0800040A08000D6
:1076500044A0800048A0800008B4024B9C4610382B
:1076600008BC60471576000070473F20704713B58F
:107670006B460268D9710733546819000122A0478C
:1076800016BD000070B50A260B7892B06E44023326
:1076900005000B703C220021300003F08FFB3948BD
:1076A00001AC0690384824210790062020776846D0
:1076B000364AA1742281364A364BA281FD3AFF3AFE
:1076C0008018C177684623390630C177684607308D
:1076D000C17702A8C1770720F277032608316944F1
:1076E000C87703A9CE7710212B366E443170092656
:1076F00021851F3169440E700CA9053E0E7033219F
:107700002380022369440B7006360DA90E702249AE
:107710003536A1863B216E44307010A86274E27742
:1077200002703D3269446A440B701370402100229C
:10773000E37023716371A37341336B442187197024
:107740005A702B7DC039A370A37263770133DBB20B
:10775000A3776A7D0B200D0068441543C57731205F
:10776000684403703A23501C6B4418704123023262
:107770000A436B441A7021004222084800F05CFF63
:1077800012B070BD10010424020605240904000093
:1077900001020000080B000007050000040C002097
:1077A00008B4024B9C46103808BC60478576000040
:1077B00070B5027D0B790C0000259A420BD10B7835
:1077C0004E78A12B09D1212E05D107221F4920482F
:1077D00000F032FF0135280070BD212BFBD1202E97
:1077E0002BD1072219491A4800F068FE174B1A7866
:1077F0005978090211439A7812041143DA78120673
:107800000A439621C9008A421DD1DB79DB071AD4CD
:10781000FA20FFF7EBF900210D4801F019F80125D6
:10782000232ED8D1E378A2781B021343094A002102
:107830000748136001F00CF8CDE7222EEFD18A78CB
:10784000024BDA71D2E7FFF7DBF9E4E73000002002
:10785000040C00202C00002008B4024B9C46103879
:1078600008BC6047B177000010B5417D006A013166
:1078700000F05CFD034B1B6801335A1E934118183E
:1078800010BDC0463800002010B5417D006A0231AD
:1078900000F062FD10BD10B5417D006A023100F0BC
:1078A00029FD10BD70B50D00417D040013000231AB
:1078B0002A00006A00F016FE002801D1012363604F
:1078C00070BD000010B5054C23685A1C04D1036834
:1078D0005B69984703002060180010BD3800002045
:1078E000074A0300106810B5411C03D001235B4216
:1078F000136010BD597D186A013100F0A3FDF8E74F
:10790000380000207047002070470000FA239B00D9
:1079100010B583600F4B0022C382030028338361BC
:107920000D4B04004260C2611800443323610830EB
:10793000631D21622060DA778323A362813BE362C7
:107940008033236300F0AEF82100103100F07EF8A0
:10795000200010BD030200009CBF0200022110B5F0
:10796000094B1A68437D5B01D318FF339C7A21438E
:107970009972437D0133DBB25B01D3180122FF33DF
:10798000997A0A439A7210BDBC100020704700001B
:1079900010B502490248FFF7B9FF10BD040C0020E2
:1079A0009C0B002070B50E0000254468002C0BD005
:1079B000236831005B6820009847002802DB2D18FF
:1079C000E468F3E701256D42280070BD70B50D0035
:1079D0004468002C08D0236829009B682000984741
:1079E000002802D1E468F4E7200070BD70B50D00F6
:1079F00000264468002C09D02368290020001B6958
:107A0000984736182D18F6B2E468F3E730002C706A
:107A100070BD70B50D004468002C08D023682900A3
:107A20001B6820009847002802D1E468F4E7200092
:107A300070BD70B50D004468002C06D0236820008E
:107A4000DB6829009847E468F6E770BDF0B58C79EB
:107A5000457803002A190020072A1FDC5A68824251
:107A600016D159601A78C8790A7112184D711A70B6
:107A700000220B4DD0B284420FD98F6858789600FF
:107A8000F75986000130775101325870F2E7020051
:107A9000D0680028FBD1D160E4E70120F0BDC046EA
:107AA000DC0B00200121064A10B5136805480B4085
:107AB00004D18024640004804360116010BDC0467E
:107AC000D00B0020D40B0020704710B50400FEF747
:107AD000BDFF200010BD0000F0B5822919D1C3B24E
